:020000040000FA
:06000000B1EF2EF012002A
:020006000000F8
:08000800D9CFE6FFE1CFD9FFDB
:10001000210EE126D9CFE9FFDACFEAFF200EEE6EFE
:10002000EE6EEE6E530EEE6E540EEE6E410EEE6EF2
:10003000520EEE6E540EEE6E200EEE6E4E0EEE6E04
:100040004F0EEE6E570EEE6E3F0EEE6E200EEE6E03
:10005000EE6EEE6AD950100FE96EDACFEAFF200E8D
:10006000EE6EEE6E500EEE6E520EEE6E450EEE6EB3
:10007000530EEE6EEE6E200EEE6E410EEE6E4E0ED6
:10008000EE6E590EEE6E4B0EEE6E450EEE6E590E86
:10009000EE6E200EEE6EEE6ADB6A7CEC2AF0620EEB
:1000A000006E510E016E026A00C0E6FF01C0E6FF5D
:1000B00002C0E6FFD9CFE6FFDACFE6FF5FEC2CF017
:1000C000036E050EE15E0350D9CFE6FFDACFE6FFFF
:1000D000A6EC2AF0E552E552020EE66E5BEC2BF040
:1000E000E552F350020FE76E200EE7CFDBFFDB5047
:1000F000050A76E0010A4FE0070A28E0010A01E05C
:1001000094D0510E006E510E016E026A00C0E6FFDF
:1001100001C0E6FF02C0E6FFD950100FE66E000EE8
:10012000DA20E66E5FEC2CF0036E050EE15E035004
:10013000D950100FE66E000EDA20E66EBBEC2AF006
:10014000E552E5520F01010E0C6F6FD0400E006EAC
:10015000510E016E026A00C0E6FF01C0E6FF02C058
:10016000E6FFD950100FE66E000EDA20E66E5FEC67
:100170002CF0036E050EE15E0350D950100FE66EB1
:10018000000EDA20E66EBBEC2AF0E552E5520F01D4
:10019000020E0C6F4AD02F0E006E510E016E026AD5
:1001A00000C0E6FF01C0E6FF02C0E6FFD950100F15
:1001B000E66E000EDA20E66E5FEC2CF0036E050EA4
:1001C000E15E0350D950100FE66E000EDA20E66EA5
:1001D000BBEC2AF0E552E5520F01030E0C6F25D05F
:1001E0001E0E006E510E016E026A00C0E6FF01C0D5
:1001F000E6FF02C0E6FFD950100FE66E000EDA20CF
:10020000E66E5FEC2CF0036E050EE15E0350D950F4
:10021000100FE66E000EDA20E66EBBEC2AF0E55217
:10022000E5520F01040E0C6F00D080BA04D080AAF2
:10023000FED7010E04D081B04FD711EC2BF0006E29
:10024000210EE15C02E2E16AE552E16E0050E55206
:10025000E7CFD9FF1200D9CFE6FFE1CFD9FF230EB8
:10026000E126D950030FE96EDACFEAFF200EEE6ED9
:10027000EE6EEE6E530EEE6E540EEE6E410EEE6EA0
:10028000520EEE6E540EEE6E200EEE6E4E0EEE6EB2
:100290004F0EEE6E570EEE6E3F0EEE6E200EEE6EB1
:1002A000EE6EEE6AD950130FE96EDACFEAFF200E38
:1002B000EE6EEE6E500EEE6E520EEE6E450EEE6E61
:1002C000530EEE6EEE6E200EEE6E410EEE6E4E0E84
:1002D000EE6E590EEE6E4B0EEE6E450EEE6E590E34
:1002E000EE6E200EEE6EEE6A7CEC2AF00C0E006EC6
:1002F000510E016E026A00C0E6FF01C0E6FF02C0B7
:10030000E6FFD950030FE66E000EDA20E66E5FECD2
:100310002CF0036E050EE15E0350D950030FE66E1C
:10032000000EDA20E66EA6EC2AF0E552E552020E47
:10033000006E510E016E026A00C0E6FF01C0E6FFCA
:1003400002C0E6FFD950130FE66E000EDA20E66E0B
:100350005FEC2CF0036E050EE15E0350D950130FD5
:10036000E66E000EDA20E66EBBEC2AF0E552E552AE
:10037000FA0EE66E68EC2EF0E552FA0EE66E68ECC8
:100380002EF0E552FA0EE66E68EC2EF0E552FA0E0B
:10039000E66E68EC2EF0E5527CEC2AF00F010C5171
:1003A000040A02E1DAEF05F0070A01E10AD3010AC3
:1003B00001E15FD1030A02E09DEF0CF0F10E006E47
:1003C000500E016E026A00C0E6FF01C0E6FF02C0E7
:1003D000E6FFD950030FE66E000EDA20E66E5FEC02
:1003E0002CF0036E050EE15E0350D950030FE66E4C
:1003F000000EDA20E66EA6EC2AF0E552E552080E71
:10040000E66E5BEC2BF0E552F350DF6EDF5002E15D
:10041000010EDF6E006A016A800E026E3F0E036EEF
:10042000DFCF10F010C02BF01AEC21F029C00CF037
:100430002AC00DF02BC00EF02CC00FF0340E2E6E23
:10044000800E2F6EB70E306E390E316E0CC029F053
:100450000DC02AF00EC02BF00FC02CF02AEC22F0B9
:1004600029C008F02AC009F02BC00AF02CC00BF0FC
:10047000830E2E6EA50E2F6EBA0E306E380E316EB4
:1004800008C029F009C02AF00AC02BF00BC02CF0DC
:1004900041EC21F029C004F02AC005F02BC006F081
:1004A0002CC007F004C02EF005C02FF006C030F0BD
:1004B00007C031F000C029F001C02AF002C02BF0C3
:1004C00003C02CF0D7EC21F0EBEC22F0DE522AC076
:1004D000DEFF2BC0DDFFDD52DF503C0812E31E0EB5
:1004E000DF5C0FE3010EDBCF00F0020EDBCF01F08B
:1004F0000006000E015A010E00C0DBFF020E01C013
:10050000DBFFDF50140813E30A0EDF5C10E3010E7B
:10051000DBCF00F0020EDBCF01F0040E005E000E18
:10052000015A010E00C0DBFF020E01C0DBFFDF50ED
:10053000050813E20A0EDF5C10E2010EDBCF00F0CB
:10054000020EDBCF01F0050E005E000E015A010E17
:1005500000C0DBFF020E01C0DBFF050EDF5C10E117
:10056000010EDBCF00F0020EDBCF01F0060E005EC5
:10057000000E015A010E00C0DBFF020E01C0DBFFBE
:10058000040EDF5C10E1010EDBCF00F0020EDBCFCA
:1005900001F0070E005E000E015A010E00C0DBFFE5
:1005A000020E01C0DBFF030EDF5C10E1010EDBCFAA
:1005B00000F0020EDBCF01F0070E005E000E015AC4
:1005C000010E00C0DBFF020E01C0DBFF020EDF5C8C
:1005D00012E10D0EE76E010EDBCF00F0020EDBCF55
:1005E00001F0E7500026000E0122010E00C0DBFFE3
:1005F000020E01C0DBFF010EDBCFE6FF020EDBCFF8
:10060000E6FFE90E006E500E016E026A00C0E6FFC2
:1006100001C0E6FF02C0E6FFD950130FE66E000EE0
:10062000DA20E66E5FEC2CF0036E070EE15E0350FD
:10063000D950130FE66E000EDA20E66EBBEC2AF0FE
:10064000E552E55280BA05D011EC2BF0020E9DEF79
:100650000CF081B0B3D611EC2BF0DFCFE6FF48EC05
:100660000DF0E55211EC2BF0030E9DEF0CF09DEF19
:100670000CF0DA0E006E500E016E026A00C0E6FF4A
:1006800001C0E6FF02C0E6FFD950030FE66E000E80
:10069000DA20E66E5FEC2CF0036E050EE15E03508F
:1006A000D950030FE66E000EDA20E66EA6EC2AF0B3
:1006B000E552E552080EE66E5BEC2BF0E552F35086
:1006C000DF6EDF5002E1010EDF6E006A016A800E0C
:1006D000026E3F0E036EDFCF10F010C02BF01AEC4D
:1006E00021F029C00CF02AC00DF02BC00EF02CC058
:1006F0000FF00D0E2E6E6C0E2F6E150E306E3A0E24
:10070000316E0CC029F00DC02AF00EC02BF00FC0C6
:100710002CF02AEC22F029C008F02AC009F02BC0E6
:100720000AF02CC00BF0F40E2E6E370E2F6EA10EB9
:10073000306E3A0E316E08C029F009C02AF00AC0A6
:100740002BF00BC02CF041EC21F029C004F02AC0A2
:1007500005F02BC006F02CC007F004C02EF005C039
:100760002FF006C030F007C031F000C029F001C002
:100770002AF002C02BF003C02CF0D7EC21F0EBECF8
:1007800022F0DE522AC0DEFF2BC0DDFFDD52DF0487
:1007900012E11A0EE76E010EDBCF00F0020EDBCF86
:1007A00001F0E7500026000E0122010E00C0DBFF21
:1007B000020E01C0DBFF020EDF5C12E1140EE76ED9
:1007C000010EDBCF00F0020EDBCF01F0E750002678
:1007D000000E0122010E00C0DBFF020E01C0DBFF94
:1007E000030EDF5C12E10C0EE76E010EDBCF00F0B2
:1007F000020EDBCF01F0E7500026000E0122010EB1
:1008000000C0DBFF020E01C0DBFF040EDF5C12E163
:100810000A0EE76E010EDBCF00F0020EDBCF01F017
:10082000E7500026000E0122010E00C0DBFF020E81
:1008300001C0DBFF050EDF5C12E1070EE76E010E63
:10084000DBCF00F0020EDBCF01F0E7500026000EF8
:100850000122010E00C0DBFF020E01C0DBFF060E0D
:10086000DF5C15E3DF50080812E3050EE76E010EAA
:10087000DBCF00F0020EDBCF01F0E7500026000EC8
:100880000122010E00C0DBFF020E01C0DBFF090EDA
:10089000DF5C12E1040EE76E010EDBCF00F0020E0A
:1008A000DBCF01F0E7500026000E0122010E00C050
:1008B000DBFF020E01C0DBFF0A0EDF5C15E3DF5039
:1008C0000D0812E3030EE76E010EDBCF00F0020EFF
:1008D000DBCF01F0E7500026000E0122010E00C020
:1008E000DBFF020E01C0DBFF0D0EDF5C15E3DF5006
:1008F000110812E3020EE76E010EDBCF00F0020ECC
:10090000DBCF01F0E7500026000E0122010E00C0EF
:10091000DBFF020E01C0DBFF120EDF5C14E3DF50D1
:10092000320811E3010EE76EDBCF00F0020EDBCFE1
:1009300001F0E7500026000E0122010E00C0DBFF8F
:10094000020E01C0DBFF010EDBCFE6FF020EDBCFA4
:10095000E6FFE90E006E500E016E026A00C0E6FF6F
:1009600001C0E6FF02C0E6FFD950130FE66E000E8D
:10097000DA20E66E5FEC2CF0036E070EE15E0350AA
:10098000D950130FE66E000EDA20E66EBBEC2AF0AB
:10099000E552E55280BA05D011EC2BF0020E9DEF26
:1009A0000CF081B066D611EC2BF0DFCFE6FFFDEC4A
:1009B0000CF0E55211EC2BF0030E9DEF0CF09DEFC7
:1009C0000CF0CB0E006E500E016E026A00C0E6FF06
:1009D00001C0E6FF02C0E6FFD950030FE66E000E2D
:1009E000DA20E66E5FEC2CF0036E050EE15E03503C
:1009F000D950030FE66E000EDA20E66EA6EC2AF060
:100A0000E552E552080EE66E5BEC2BF0E552F35032
:100A1000DF6EDF50010802E3020EDF6E006A016A3A
:100A2000800E026E3F0E036EDFCF10F010C02BF071
:100A30001AEC21F029C00CF02AC00DF02BC00EF0EA
:100A40002CC00FF02F0E2E6EDC0E2F6E390E306E76
:100A50003A0E316E0CC029F00DC02AF00EC02BF0FA
:100A60000FC02CF02AEC22F029C008F02AC009F0AF
:100A70002BC00AF02CC00BF0F70E2E6ECC0E2F6E92
:100A8000920E306E380E316E08C029F009C02AF07F
:100A90000AC02BF00BC02CF041EC21F029C004F06F
:100AA0002AC005F02BC006F02CC007F004C02EF0C1
:100AB00005C02FF006C030F007C031F000C029F0AB
:100AC00001C02AF002C02BF003C02CF0D7EC21F0BB
:100AD000EBEC22F0DE522AC0DEFF2BC0DDFFDD5240
:100AE000020EDF5C03E0030EDF5C12E1040EE76E32
:100AF000010EDBCF00F0020EDBCF01F0E750002645
:100B0000000E0122010E00C0DBFF020E01C0DBFF60
:100B1000040EDF5C11E1010EE76EDBCF00F0020E88
:100B2000DBCF01F0E7500026000E0122010E00C0CD
:100B3000DBFF020E01C0DBFF010EDBCFE6FF020E82
:100B4000DBCFE6FFE90E006E500E016E026A00C0B8
:100B5000E6FF01C0E6FF02C0E6FFD950130FE66EC4
:100B6000000EDA20E66E5FEC2CF0036E070EE15EFD
:100B70000350D950130FE66E000EDA20E66EBBEC80
:100B80002AF0E552E55280BA05D011EC2BF0020EA6
:100B90009DEF0CF081B015D711EC2BF0DFCFE6FF05
:100BA00033EC0DF0E55211EC2BF0030E9DEF0CF041
:100BB0009DEF0CF0BA0E006E500E016E026A00C07E
:100BC000E6FF01C0E6FF02C0E6FFD950030FE66E64
:100BD000000EDA20E66E5FEC2CF0036E050EE15E8F
:100BE0000350D950030FE66E000EDA20E66EA6EC35
:100BF0002AF0E552E552080EE66E5BEC2BF0E5526A
:100C0000F350DF6EDF5002E1010EDF6EDF50006E49
:100C1000016AD890015004E68C0E005C000E015869
:100C200001E284D0DF50026E036A033404E2025012
:100C3000FF08000E035401E279D0046A056A800EB1
:100C4000066E3F0E076EDFCF14F014C02BF01AECC7
:100C500021F029C010F02AC011F02BC012F02CC0D6
:100C600013F0B10E2E6EB40E2F6E1D0E306E380EB8
:100C7000316E10C029F011C02AF012C02BF013C041
:100C80002CF02AEC22F029C00CF02AC00DF02BC069
:100C90000EF02CC00FF0520E2E6E490E2F6E9D0ED0
:100CA000306E380E316E0CC029F00DC02AF00EC027
:100CB0002BF00FC02CF041EC21F029C008F02AC025
:100CC00009F02BC00AF02CC00BF008C02EF009C0B0
:100CD0002FF00AC030F00BC031F004C029F005C07D
:100CE0002AF006C02BF007C02CF0D7EC21F029C069
:100CF00000F02AC001F02BC002F02CC003F02E6AD5
:100D00002F6A306A3F0E316E00C029F001C02AF010
:100D100002C02BF003C02CF040EC21F0EBEC22F0F1
:100D2000DE522AC0DEFF2BC0DDFFDD52650EDF5C28
:100D300001E285D0DF50006E016A013404E2005008
:100D40008B08000E015401E27AD0046A056A800E15
:100D5000066E3F0E076EDFCF14F014C02BF01AECB6
:100D600021F029C010F02AC011F02BC012F02CC0C5
:100D700013F0B10E2E6EB40E2F6E1D0E306E380EA7
:100D8000316E10C029F011C02AF012C02BF013C030
:100D90002CF02AEC22F029C00CF02AC00DF02BC058
:100DA0000EF02CC00FF0520E2E6E490E2F6E9D0EBF
:100DB000306E380E316E0CC029F00DC02AF00EC016
:100DC0002BF00FC02CF041EC21F029C008F02AC014
:100DD00009F02BC00AF02CC00BF008C02EF009C09F
:100DE0002FF00AC030F00BC031F004C029F005C06C
:100DF0002AF006C02BF007C02CF0D7EC21F029C058
:100E000000F02AC001F02BC002F02CC003F02E6AC3
:100E10002F6AC00E306E3F0E316E00C029F001C047
:100E20002AF002C02BF003C02CF040EC21F0EBECD8
:100E300022F0DE522AC0DEFF2BC0DDFFDD52460E5F
:100E4000DF5C01E27ED0DF50640801E27AD0046A00
:100E5000056A800E066E3F0E076EDFCF14F014C0D9
:100E60002BF01AEC21F029C010F02AC011F02BC091
:100E700012F02CC013F0B10E2E6EB40E2F6E1D0E9C
:100E8000306E380E316E10C029F011C02AF012C039
:100E90002BF013C02CF02AEC22F029C00CF02AC051
:100EA0000DF02BC00EF02CC00FF0520E2E6E490E1E
:100EB0002F6E9D0E306E380E316E0CC029F00DC0B5
:100EC0002AF00EC02BF00FC02CF041EC21F029C00D
:100ED00008F02AC009F02BC00AF02CC00BF008C0A3
:100EE0002EF009C02FF00AC030F00BC031F004C062
:100EF00029F005C02AF006C02BF007C02CF0D7EC73
:100F000021F029C000F02AC001F02BC002F02CC053
:100F100003F02E6A2F6A200E306E400E316E00C034
:100F200029F001C02AF002C02BF003C02CF040ECE5
:100F300021F0EBEC22F0DE522AC0DEFF2BC0DDFFF9
:100F4000DD52400EDF5C01E27ED0DF50450801E259
:100F50007AD0046A056A800E066E3F0E076EDFCFF8
:100F600014F014C02BF01AEC21F029C010F02AC0A4
:100F700011F02BC012F02CC013F0B10E2E6EB40E77
:100F80002F6E1D0E306E380E316E10C029F011C05C
:100F90002AF012C02BF013C02CF02AEC22F029C04A
:100FA0000CF02AC00DF02BC00EF02CC00FF0520E2A
:100FB0002E6E490E2F6E9D0E306E380E316E0CC0A7
:100FC00029F00DC02AF00EC02BF00FC02CF041EC20
:100FD00021F029C008F02AC009F02BC00AF02CC06B
:100FE0000BF008C02EF009C02FF00AC030F00BC083
:100FF00031F004C029F005C02AF006C02BF007C06C
:101000002CF0D7EC21F029C000F02AC001F02BC051
:1010100002F02CC003F02E6A2F6A600E306E400E74
:10102000316E00C029F001C02AF002C02BF003C0CD
:101030002CF040EC21F0EBEC22F0DE522AC0DEFF77
:101040002BC0DDFFDD52370EDF5C01E27ED0DF50CA
:101050003F0801E27AD0046A056A800E066E3F0EF0
:10106000076EDFCF14F014C02BF01AEC21F029C06A
:1010700010F02AC011F02BC012F02CC013F0B10EEA
:101080002E6EB40E2F6E1D0E306E380E316E10C0E7
:1010900029F011C02AF012C02BF013C02CF02AEC5A
:1010A00022F029C00CF02AC00DF02BC00EF02CC08D
:1010B0000FF0520E2E6E490E2F6E9D0E306E380EB2
:1010C000316E0CC029F00DC02AF00EC02BF00FC0FD
:1010D0002CF041EC21F029C008F02AC009F02BC007
:1010E0000AF02CC00BF008C02EF009C02FF00AC087
:1010F00030F00BC031F004C029F005C02AF006C062
:101100002BF007C02CF0D7EC21F029C000F02AC04A
:1011100001F02BC002F02CC003F02E6A2F6A900E53
:10112000306E400E316E00C029F001C02AF002C0BE
:101130002BF003C02CF040EC21F0EBEC22F0DE525F
:101140002AC0DEFF2BC0DDFFDD522E0EDF5C01E288
:101150007ED0DF50360801E27AD0046A056A800E3C
:10116000066E3F0E076EDFCF14F014C02BF01AECA2
:1011700021F029C010F02AC011F02BC012F02CC0B1
:1011800013F0B10E2E6EB40E2F6E1D0E306E380E93
:10119000316E10C029F011C02AF012C02BF013C01C
:1011A0002CF02AEC22F029C00CF02AC00DF02BC044
:1011B0000EF02CC00FF0520E2E6E490E2F6E9D0EAB
:1011C000306E380E316E0CC029F00DC02AF00EC002
:1011D0002BF00FC02CF041EC21F029C008F02AC000
:1011E00009F02BC00AF02CC00BF008C02EF009C08B
:1011F0002FF00AC030F00BC031F004C029F005C058
:101200002AF006C02BF007C02CF0D7EC21F029C043
:1012100000F02AC001F02BC002F02CC003F02E6AAF
:101220002F6AB00E306E400E316E00C029F001C042
:101230002AF002C02BF003C02CF040EC21F0EBECC4
:1012400022F0DE522AC0DEFF2BC0DDFFDD522D0E64
:10125000DF5C01E27ED0DF502B0801E27AD0046A25
:10126000056A800E066E3F0E076EDFCF14F014C0C5
:101270002BF01AEC21F029C010F02AC011F02BC07D
:1012800012F02CC013F0B10E2E6EB40E2F6E1D0E88
:10129000306E380E316E10C029F011C02AF012C025
:1012A0002BF013C02CF02AEC22F029C00CF02AC03D
:1012B0000DF02BC00EF02CC00FF0520E2E6E490E0A
:1012C0002F6E9D0E306E380E316E0CC029F00DC0A1
:1012D0002AF00EC02BF00FC02CF041EC21F029C0F9
:1012E00008F02AC009F02BC00AF02CC00BF008C08F
:1012F0002EF009C02FF00AC030F00BC031F004C04E
:1013000029F005C02AF006C02BF007C02CF0D7EC5E
:1013100021F029C000F02AC001F02BC002F02CC03F
:1013200003F02E6A2F6AD00E306E400E316E00C070
:1013300029F001C02AF002C02BF003C02CF040ECD1
:1013400021F0EBEC22F0DE522AC0DEFF2BC0DDFFE5
:10135000DD52280EDF5C01E27ED0DF502A0801E278
:101360007AD0046A056A800E066E3F0E076EDFCFE4
:1013700014F014C02BF01AEC21F029C010F02AC090
:1013800011F02BC012F02CC013F0B10E2E6EB40E63
:101390002F6E1D0E306E380E316E10C029F011C048
:1013A0002AF012C02BF013C02CF02AEC22F029C036
:1013B0000CF02AC00DF02BC00EF02CC00FF0520E16
:1013C0002E6E490E2F6E9D0E306E380E316E0CC093
:1013D00029F00DC02AF00EC02BF00FC02CF041EC0C
:1013E00021F029C008F02AC009F02BC00AF02CC057
:1013F0000BF008C02EF009C02FF00AC030F00BC06F
:1014000031F004C029F005C02AF006C02BF007C057
:101410002CF0D7EC21F029C000F02AC001F02BC03D
:1014200002F02CC003F02E6A2F6AF00E306E400ED0
:10143000316E00C029F001C02AF002C02BF003C0B9
:101440002CF040EC21F0EBEC22F0DE522AC0DEFF63
:101450002BC0DDFFDD521E0EDF5C01E27ED0DF50CF
:10146000280801E27AD0046A056A800E066E3F0EF3
:10147000076EDFCF14F014C02BF01AEC21F029C056
:1014800010F02AC011F02BC012F02CC013F0B10ED6
:101490002E6EB40E2F6E1D0E306E380E316E10C0D3
:1014A00029F011C02AF012C02BF013C02CF02AEC46
:1014B00022F029C00CF02AC00DF02BC00EF02CC079
:1014C0000FF0520E2E6E490E2F6E9D0E306E380E9E
:1014D000316E0CC029F00DC02AF00EC02BF00FC0E9
:1014E0002CF041EC21F029C008F02AC009F02BC0F3
:1014F0000AF02CC00BF008C02EF009C02FF00AC073
:1015000030F00BC031F004C029F005C02AF006C04D
:101510002BF007C02CF0D7EC21F029C000F02AC036
:1015200001F02BC002F02CC003F02E6A2F6A180EB7
:10153000306E410E316E00C029F001C02AF002C0A9
:101540002BF003C02CF040EC21F0EBEC22F0DE524B
:101550002AC0DEFF2BC0DDFFDD52140EDF5C01E28E
:101560007ED0DF501D0801E27AD0046A056A800E41
:10157000066E3F0E076EDFCF14F014C02BF01AEC8E
:1015800021F029C010F02AC011F02BC012F02CC09D
:1015900013F0B10E2E6EB40E2F6E1D0E306E380E7F
:1015A000316E10C029F011C02AF012C02BF013C008
:1015B0002CF02AEC22F029C00CF02AC00DF02BC030
:1015C0000EF02CC00FF0520E2E6E490E2F6E9D0E97
:1015D000306E380E316E0CC029F00DC02AF00EC0EE
:1015E0002BF00FC02CF041EC21F029C008F02AC0EC
:1015F00009F02BC00AF02CC00BF008C02EF009C077
:101600002FF00AC030F00BC031F004C029F005C043
:101610002AF006C02BF007C02CF0D7EC21F029C02F
:1016200000F02AC001F02BC002F02CC003F02E6A9B
:101630002F6A380E306E410E316E00C029F001C0A5
:101640002AF002C02BF003C02CF040EC21F0EBECB0
:1016500022F0DE522AC0DEFF2BC0DDFFDD520A0E73
:10166000DF5C01E2AED0DF50130801E2AAD0046AC9
:10167000056A800E066E3F0E076EDFCF14F014C0B1
:101680002BF01AEC21F029C010F02AC011F02BC069
:1016900012F02CC013F0B10E2E6EB40E2F6E1D0E74
:1016A000306E380E316E10C029F011C02AF012C011
:1016B0002BF013C02CF02AEC22F029C00CF02AC029
:1016C0000DF02BC00EF02CC00FF0520E2E6E490EF6
:1016D0002F6E9D0E306E380E316E0CC029F00DC08D
:1016E0002AF00EC02BF00FC02CF041EC21F029C0E5
:1016F00008F02AC009F02BC00AF02CC00BF008C07B
:101700002EF009C02FF00AC030F00BC031F004C039
:1017100029F005C02AF006C02BF007C02CF0D7EC4A
:1017200021F029C000F02AC001F02BC002F02CC02B
:1017300003F0196A1A6A200E1B6E400E1C6EDFCF72
:1017400021F021C02BF01AEC21F029C01DF02AC095
:101750001EF02BC01FF02CC020F01DC02EF01EC0AC
:101760002FF01FC030F020C031F019C029F01AC08E
:101770002AF01BC02BF01CC02CF02AEC22F029C050
:1017800015F02AC016F02BC017F02CC018F015C0A9
:101790002EF016C02FF017C030F018C031F000C086
:1017A00029F001C02AF002C02BF003C02CF040EC5D
:1017B00021F0EBEC22F0DE522AC0DEFF2BC0DDFF71
:1017C000DD520A0EDF5C0AE1530EF36E010EF3CF19
:1017D000DBFF080EF36E020EF3CFDBFF090EDF5CBA
:1017E0000AE1090EF36E010EF3CFDBFF090EF36E73
:1017F000020EF3CFDBFF080EDF5C0AE1EC0EF36EA6
:10180000010EF3CFDBFF090EF36E020EF3CFDBFF09
:10181000070EDF5C0AE1FA0EF36E010EF3CFDBFF79
:101820000A0EF36E020EF3CFDBFF060EDF5C0AE159
:10183000440EF36E010EF3CFDBFF0C0EF36E020EBF
:10184000F3CFDBFF050EDF5C0AE1F20EF36E010E53
:10185000F3CFDBFF0D0EF36E020EF3CFDBFF040EB2
:10186000DF5C0AE1220EF36E010EF3CFDBFF100EF8
:10187000F36E020EF3CFDBFF030EDF5C0AE1240EF2
:10188000F36E010EF3CFDBFF130EF36E020EF3CFF8
:10189000DBFF020EDF5C0AE1840EF36E010EF3CF74
:1018A000DBFF170EF36E020EF3CFDBFFDF040AE15E
:1018B0000A0EF36E010EF3CFDBFF1E0EF36E020E67
:1018C000F3CFDBFF010EDBCFE6FF020EDBCFE6FF3F
:1018D000E90E006E500E016E026A00C0E6FF01C004
:1018E000E6FF02C0E6FFD950130FE66E000EDA20C5
:1018F000E66E5FEC2CF0036E070EE15E0350D950EC
:10190000130FE66E000EDA20E66EBBEC2AF0E5520D
:10191000E55280BA04D011EC2BF0020E0ED081B04B
:10192000DAEF05F011EC2BF0DFCFE6FF12D8E5522D
:1019300011EC2BF0030E01D000D0006E230EE15C01
:1019400002E2E16AE552E16E0050E552E7CFD9FFCD
:101950001200D9CFE6FFE1CFD9FF040EE126100E29
:10196000F36E020EF3CFDBFF030EDB6A80AA3BD0DF
:10197000DE6ADD6ADECF00F0DDCF01F0020EDBCFE4
:1019800002F0030EDBCF03F00050025C015003585D
:101990000CE3836AFE0EDBCFE6FFDBEC2EF0E552B4
:1019A000DF2A010E01E3DB2AE5D7DE6ADD6ADECF3E
:1019B00000F0DDCF01F0020EDBCF02F0030EDBCF33
:1019C00003F00050025C015003580CE38368FE0EE4
:1019D000DBCFE6FFDBEC2EF0E552DF2A010E01E360
:1019E000DB2AE5D7C3D7040EE15C02E2E16AE552E7
:1019F000E16EE552E7CFD9FF1200D9CFE6FFE1CF84
:101A0000D9FF020EE126836A80AA23D0D9CFE9FF4D
:101A1000DACFEAFF010EEE1801E1ED500DE1832A65
:101A2000FE0EDBCFE6FFDBEC2EF0E552FF0E835C13
:101A300002E1DE6ADD6A0CD08306FE0EDBCFE6FF34
:101A4000DBEC2EF0E552835003E1010EDE6EDD6A21
:101A5000DBD7020EE15C02E2E16AE552E16EE5529B
:101A6000E7CFD9FF1200D9CFE6FFE1CFD9FF836AD4
:101A700080AA0AD0040E8324836EFE0EDBCFE6FF1D
:101A8000CDEC2EF0E552F4D7E552E7CFD9FF1200A6
:101A9000D9CFE6FFE1CFD9FF250EE126DC0EF36EAC
:101AA000210EF3CFDBFF0F0EF36E220EF3CFDBFF21
:101AB000490EF36E230EF3CFDBFF400EF36E240EC0
:101AC000F3CFDBFFDE521F0EDD6EDF6A010EDB504F
:101AD000D880DF5401E2BED0296A2A6A2B6A400E00
:101AE0002C6E210EDBCF2EF0220EDBCF2FF0230E3B
:101AF000DBCF30F0240EDBCF31F02AEC22F029C00E
:101B000012F02AC013F02BC014F02CC015F0010EF7
:101B1000DB281A6E1AC02BF01AEC21F029C016F03F
:101B20002AC017F02BC018F02CC019F016C02EF0E8
:101B300017C02FF018C030F019C031F012C029F0D2
:101B400013C02AF014C02BF015C02CF0D7EC21F0F4
:101B500029C00EF02AC00FF02BC010F02CC011F0DD
:101B6000DFCF1FF01FC02BF01AEC21F029C01BF0B3
:101B70002AC01CF02BC01DF02CC01EF01BC02EF084
:101B80001CC02FF01DC030F01EC031F00EC029F077
:101B90000FC02AF010C02BF011C02CF02AEC22F05C
:101BA00029C00AF02AC00BF02BC00CF02CC00DF09D
:101BB0000AC0E6FF0BC0E6FF0CC0E6FF0DC0E6FF63
:101BC0001CEC2EF0E552E552E552E55228C006F035
:101BD00029C007F02AC008F02BC009F02E6A2F6A2E
:101BE000FE0E306E420E316E06C029F007C02AF09C
:101BF00008C02BF009C02CF02AEC22F029C002F01A
:101C00002AC003F02BC004F02CC005F02E6A2F6A06
:101C1000306A430E316E02C029F003C02AF004C0BE
:101C20002BF005C02CF041EC21F0C4EC22F02B503D
:101C3000E66ED950020F006EDACF01F0DF500F01CF
:101C40000024E96E000E0120EA6EE552E750EF6EC7
:101C5000DF2A3CD780AA1DD0DF6A010EDB50D88076
:101C6000DF5416E3D950020F006EDACF01F0DF50D7
:101C70000F010024E96E000E0120EA6EEF50836E22
:101C8000FE0EDBCFE6FFCDEC2EF0E552DF2AE5D7E6
:101C9000E1D7250EE15C02E2E16AE552E16EE55230
:061CA000E7CFD9FF12009E
:0A1CA600D9CFE6FFE1CFD9FF200EF1
:101CB000E126A90E006E500E016E026A00C0E6FF1A
:101CC00001C0E6FF02C0E6FFD9CFE6FFDACFE6FFAC
:101CD0005FEC2CF0036E050EE15E0350D9CFE6FFFA
:101CE000DACFE6FFA6EC2AF0E552E552050EE66EE5
:101CF0005BEC2BF0E552F3CF00F0F4CF01F0050ED2
:101D00000102F3CF01F00002F3CF00F0F4500126FE
:101D1000050ED89001320032E804FBE1060E0026E1
:101D2000000E0122FD0EDBCFE9FFFE0EDBCFEAFF46
:101D300000C0EFFFFD0EDBCFE9FFFE0EDBCFEAFFB9
:101D4000EF500A0A01E180D0030A66E0010A4CE084
:101D50000F0A32E0010A18E0470E006E500E016EC5
:101D6000026A00C0E6FF01C0E6FF02C0E6FFD950EC
:101D7000100FE66E000EDA20E66E5FEC2CF0036EBC
:101D8000050EE15E035078D0980E006E500E016E85
:101D9000026A00C0E6FF01C0E6FF02C0E6FFD950BC
:101DA000100FE66E000EDA20E66E5FEC2CF0036E8C
:101DB000050EE15E035060D0880E006E500E016E7D
:101DC000026A00C0E6FF01C0E6FF02C0E6FFD9508C
:101DD000100FE66E000EDA20E66E5FEC2CF0036E5C
:101DE000050EE15E035048D0780E006E500E016E75
:101DF000026A00C0E6FF01C0E6FF02C0E6FFD9505C
:101E0000100FE66E000EDA20E66E5FEC2CF0036E2B
:101E1000050EE15E035030D0680E006E500E016E6C
:101E2000026A00C0E6FF01C0E6FF02C0E6FFD9502B
:101E3000100FE66E000EDA20E66E5FEC2CF0036EFB
:101E4000050EE15E035018D0570E006E500E016E65
:101E5000026A00C0E6FF01C0E6FF02C0E6FFD950FB
:101E6000100FE66E000EDA20E66E5FEC2CF0036ECB
:101E7000050EE15E035000D0D950100FE66E000E43
:101E8000DA20E66EBBEC2AF0E552E55280BA04D0C7
:101E900011EC2BF0FF0E06D081B028D711EC2BF0FF
:101EA000000E00D0006E200EE15C02E2E16AE55215
:101EB000E16E0050E552E7CFD9FF1200D9CFE6FF1F
:101EC000E1CFD9FF240EE126DE6ADD6AFE0EDB508B
:101ED0000A0A02E10CEF14F0030A01E1DCD3010A63
:101EE00001E19ED20F0A01E160D1010A23E0B90E9F
:101EF000006E4E0E016E026A00C0E6FF01C0E6FFF2
:101F000002C0E6FFD950040FE66E000EDA20E66E3E
:101F10005FEC2CF0036E050EE15E0350D950040F08
:101F2000E66E000EDA20E66EA6EC2AF0E552E552E7
:101F30005AEF14F0360E006E500E016E026A00C0A9
:101F4000E6FF01C0E6FF02C0E6FFD950040FE66ECF
:101F5000000EDA20E66E5FEC2CF0036E050EE15EFB
:101F60000350D950040FE66E000EDA20E66EA6ECA0
:101F70002AF0E552E552030EE66E5BEC2BF0E552DB
:101F8000F3CFDEFFF4CFDDFF000EDFCF2AF0010E2E
:101F9000DBCF2BF0070E2A1801E12B5001E1CDD049
:101FA000060E2A1801E12B5001E1AFD0050E2A18C8
:101FB00001E12B5001E191D0040E2A1801E12B50D0
:101FC00074E0030E2A1801E12B5057E0020E2A1884
:101FD00001E12B503AE0010E2A1801E12B501DE0DF
:101FE0002A5001E12B5001E0C0D0250E006E500EAA
:101FF000016E026A00C0E6FF01C0E6FF02C0E6FF14
:10200000D950140FE66E000EDA20E66E5FEC2CF06D
:10201000036E050EE15E0350A8D0140E006E500E44
:10202000016E026A00C0E6FF01C0E6FF02C0E6FFE3
:10203000D950140FE66E000EDA20E66E5FEC2CF03D
:10204000036E050EE15E035090D0030E006E500E3D
:10205000016E026A00C0E6FF01C0E6FF02C0E6FFB3
:10206000D950140FE66E000EDA20E66E5FEC2CF00D
:10207000036E050EE15E035078D0F20E006E4F0E37
:10208000016E026A00C0E6FF01C0E6FF02C0E6FF83
:10209000D950140FE66E000EDA20E66E5FEC2CF0DD
:1020A000036E050EE15E035060D0E10E006E4F0E30
:1020B000016E026A00C0E6FF01C0E6FF02C0E6FF53
:1020C000D950140FE66E000EDA20E66E5FEC2CF0AD
:1020D000036E050EE15E035048D0D00E006E4F0E29
:1020E000016E026A00C0E6FF01C0E6FF02C0E6FF23
:1020F000D950140FE66E000EDA20E66E5FEC2CF07D
:10210000036E050EE15E035030D0BF0E006E4F0E21
:10211000016E026A00C0E6FF01C0E6FF02C0E6FFF2
:10212000D950140FE66E000EDA20E66E5FEC2CF04C
:10213000036E050EE15E035018D0AE0E006E4F0E1A
:10214000016E026A00C0E6FF01C0E6FF02C0E6FFC2
:10215000D950140FE66E000EDA20E66E5FEC2CF01C
:10216000036E050EE15E035000D0FC0EDBCFE9FFED
:10217000FD0EDBCFEAFFDECFEEFFDDCFEDFFD95066
:10218000140FE66E000EDA20E66EBBEC2AF0E55284
:10219000E55280BA04D011EC2BF0FF0E8BD381B046
:1021A000EAD611EC2BF0000E85D39D0E006E4F0E7B
:1021B000016E026A00C0E6FF01C0E6FF02C0E6FF52
:1021C000D950040FE66E000EDA20E66E5FEC2CF0BC
:1021D000036E050EE15E0350D950040FE66E000E4B
:1021E000DA20E66EA6EC2AF0E552E552030EE66E22
:1021F0005BEC2BF0E552F3CFDEFFF4CFDDFF000EFA
:10220000DFCF2AF0010EDBCF2BF0070E2A1801E1F9
:102210002B5001E1CDD0060E2A1801E12B5001E12F
:10222000AFD0050E2A1801E12B5001E191D0040E28
:102230002A1801E12B5074E0030E2A1801E12B50FB
:1022400057E0020E2A1801E12B503AE0010E2A183D
:1022500001E12B501DE02A5001E12B5001E0C0D0DC
:10226000250E006E500E016E026A00C0E6FF01C02E
:10227000E6FF02C0E6FFD950140FE66E000EDA202A
:10228000E66E5FEC2CF0036E050EE15E0350A8D005
:10229000140E006E500E016E026A00C0E6FF01C00F
:1022A000E6FF02C0E6FFD950140FE66E000EDA20FA
:1022B000E66E5FEC2CF0036E050EE15E035090D0ED
:1022C0008C0E006E4F0E016E026A00C0E6FF01C068
:1022D000E6FF02C0E6FFD950140FE66E000EDA20CA
:1022E000E66E5FEC2CF0036E050EE15E035078D0D5
:1022F000030E006E500E016E026A00C0E6FF01C0C0
:10230000E6FF02C0E6FFD950140FE66E000EDA2099
:10231000E66E5FEC2CF0036E050EE15E035060D0BC
:10232000F20E006E4F0E016E026A00C0E6FF01C0A1
:10233000E6FF02C0E6FFD950140FE66E000EDA2069
:10234000E66E5FEC2CF0036E050EE15E035048D0A4
:10235000E10E006E4F0E016E026A00C0E6FF01C082
:10236000E6FF02C0E6FFD950140FE66E000EDA2039
:10237000E66E5FEC2CF0036E050EE15E035030D08C
:10238000D00E006E4F0E016E026A00C0E6FF01C063
:10239000E6FF02C0E6FFD950140FE66E000EDA2009
:1023A000E66E5FEC2CF0036E050EE15E035018D074
:1023B000AE0E006E4F0E016E026A00C0E6FF01C055
:1023C000E6FF02C0E6FFD950140FE66E000EDA20D9
:1023D000E66E5FEC2CF0036E050EE15E035000D05C
:1023E000FC0EDBCFE9FFFD0EDBCFEAFFDECFEEFF19
:1023F000DDCFEDFFD950140FE66E000EDA20E66E49
:10240000BBEC2AF0E552E55280BA04D011EC2BF077
:10241000FF0E50D281B0EAD611EC2BF0000E4AD25A
:10242000360E006E500E016E026A00C0E6FF01C05B
:10243000E6FF02C0E6FFD950040FE66E000EDA2078
:10244000E66E5FEC2CF0036E050EE15E0350D95092
:10245000040FE66E000EDA20E66EA6EC2AF0E552D6
:10246000E552030EE66E5BEC2BF0E552F3CFDEFF98
:10247000F4CFDDFF000EDFCF2AF0010EDBCF2BF013
:10248000070E2A1801E12B5001E1CDD0060E2A18C3
:1024900001E12B5001E1AFD0050E2A1801E12B50CC
:1024A00001E191D0040E2A1801E12B5074E0030ED3
:1024B0002A1801E12B5057E0020E2A1801E12B5097
:1024C0003AE0010E2A1801E12B501DE02A5001E1EB
:1024D0002B5001E0C0D07B0E006E4F0E016E026AE1
:1024E00000C0E6FF01C0E6FF02C0E6FFD950140FAE
:1024F000E66E000EDA20E66E5FEC2CF0036E050E41
:10250000E15E0350A8D06A0E006E4F0E016E026AA3
:1025100000C0E6FF01C0E6FF02C0E6FFD950140F7D
:10252000E66E000EDA20E66E5FEC2CF0036E050E10
:10253000E15E035090D0590E006E4F0E016E026A9C
:1025400000C0E6FF01C0E6FF02C0E6FFD950140F4D
:10255000E66E000EDA20E66E5FEC2CF0036E050EE0
:10256000E15E035078D0480E006E4F0E016E026A95
:1025700000C0E6FF01C0E6FF02C0E6FFD950140F1D
:10258000E66E000EDA20E66E5FEC2CF0036E050EB0
:10259000E15E035060D0370E006E4F0E016E026A8E
:1025A00000C0E6FF01C0E6FF02C0E6FFD950140FED
:1025B000E66E000EDA20E66E5FEC2CF0036E050E80
:1025C000E15E035048D0260E006E4F0E016E026A87
:1025D00000C0E6FF01C0E6FF02C0E6FFD950140FBD
:1025E000E66E000EDA20E66E5FEC2CF0036E050E50
:1025F000E15E035030D0150E006E4F0E016E026A80
:1026000000C0E6FF01C0E6FF02C0E6FFD950140F8C
:10261000E66E000EDA20E66E5FEC2CF0036E050E1F
:10262000E15E035018D0040E006E4F0E016E026A78
:1026300000C0E6FF01C0E6FF02C0E6FFD950140F5C
:10264000E66E000EDA20E66E5FEC2CF0036E050EEF
:10265000E15E035000D0FC0EDBCFE9FFFD0EDBCFC7
:10266000EAFFDECFEEFFDDCFEDFFD950140FE66EAF
:10267000000EDA20E66EBBEC2AF0E552E55280BA95
:1026800004D011EC2BF0FF0E15D181B0EAD611EC7D
:102690002BF0000E0FD1F30E006E4E0E016E026A8B
:1026A00000C0E6FF01C0E6FF02C0E6FFD950040FFC
:1026B000E66E000EDA20E66E5FEC2CF0036E050E7F
:1026C000E15E0350D950040FE66E000EDA20E66E8C
:1026D000A6EC2AF0E552E5520A0EE66E5BEC2BF012
:1026E000E552F3CFDEFFF4CFDDFFFC0EDBCFE9FFD9
:1026F000FD0EDBCFEAFFDECFEEFFDDCFEDFF000EFC
:10270000DFCF2AF0010EDBCF2BF02BEC21F029C01C
:1027100008F02AC009F02BC00AF02CC00BF02E6A7A
:10272000C00E2F6E7F0E306E440E316E08C029F041
:1027300009C02AF00AC02BF00BC02CF0D7EC21F016
:1027400029C004F02AC005F02BC006F02CC007F009
:102750002E6A800E2F6E540E306E440E316E04C001
:1027600029F005C02AF006C02BF007C02CF02AEC97
:1027700022F029C000F02AC001F02BC002F02CC0CA
:1027800003F02E6A2F6A200E306E410E316E00C0AB
:1027900029F001C02AF002C02BF003C02CF041EC5C
:1027A00021F0EBEC22F0020E2AC0DBFF030E2BC05F
:1027B000DBFF020EDBCFE6FF030EDBCFE6FFE10E11
:1027C000006E4E0E016E026A00C0E6FF01C0E6FF19
:1027D00002C0E6FFD950140FE66E000EDA20E66E56
:1027E0005FEC2CF0036E070EE15E0350D950140F1E
:1027F000E66E000EDA20E66EBBEC2AF0E552E552FA
:1028000080BA04D011EC2BF0FF0E54D081B064D705
:1028100011EC2BF0000E4ED0D00E006E4E0E016E5D
:10282000026A00C0E6FF01C0E6FF02C0E6FFD95021
:10283000040FE66E000EDA20E66E5FEC2CF0036EFD
:10284000050EE15E0350BF0E006E4E0E016E026A71
:1028500000C0E6FF01C0E6FF02C0E6FFD950140F3A
:10286000E66E000EDA20E66E5FEC2CF0036E050ECD
:10287000E15E0350D950040FE66E000EDA20E66EDA
:10288000A6EC2AF0E552E552D950140FE66E000E80
:10289000DA20E66EBBEC2AF0E552E55280BA04D0AD
:1028A00011EC2BF0FF0E06D081B0F8D711EC2BF015
:1028B000000E00D0006E240EE15C02E2E16AE552F7
:1028C000E16E0050E552E7CFD9FF1200D9CFE6FF05
:1028D000E1CFD9FF660EE126DE6ADD6A020EDB6A11
:1028E000030EDB6A040EDB6A050EDB6A060EDB6A8A
:1028F000070EDB6A080EDB6A090EDB6A0A0EDB6A6A
:102900000B0EDB6A0C0EDB6A0D0EDB6A010EF36E3A
:102910000E0EF3CFDBFF0F0EDB6A180EDB6A190E0B
:10292000DB6A1C0EDB6A1D0EDB6A1E0EDB6A1F0EE5
:10293000DB6A200EDB6A210EDB6A220EDB6A230EC5
:10294000DB6A240EDB6A250EDB6A8C684DEC2BF00B
:10295000FE0EDB500A0819E10A0EE66E5BEC2BF066
:10296000E552F3CF00F0F4CF01F0D89001320032FD
:10297000D8900132003200508C6E80BA05D011EC34
:102980002BF0FF0EFDEF1AF0E7D7FE0EDB50060826
:1029900001E038D1FC0EDBCFF6FFFD0EDBCFF7FFF9
:1029A000030EF702F3CFF7FF030EF602F3CFF6FFA5
:1029B000F450F7268C0EF6265A0EF7220800F5CFB3
:1029C00000F0016A00BE0168100E00C0DBFF110EAE
:1029D00001C0DBFFFC0EDBCFF6FFFD0EDBCFF7FF08
:1029E000030EF702F3CFF7FF030EF602F3CFF6FF65
:1029F000F450F7268C0EF6265A0EF722010EF62614
:102A0000000EF7220800F5CF00F0016A00BE016851
:102A1000120E00C0DBFF130E01C0DBFFFC0EDBCF8C
:102A2000F6FFFD0EDBCFF7FF030EF702F3CFF7FF44
:102A3000030EF602F3CFF6FFF450F7268C0EF626BF
:102A40005A0EF722020EF626000EF7220800F5CFE6
:102A500000F0016A00BE0168140E00C0DBFF150E15
:102A600001C0DBFF060EDBCF08F0070EDBCF09F05D
:102A7000DE500824066EDD500920076E100EDBCFF5
:102A80002AF0110EDBCF2BF006C02FF007C030F07C
:102A900097EC22F028C004F029C005F00E0EDBCF21
:102AA0000CF00F0EDBCF0DF0080EDB500C240A6E7D
:102AB000090EDB500D200B6E120EDBCF2AF0130E29
:102AC000DBCF2BF00AC02FF00BC030F097EC22F0D8
:102AD00004502824026E05502920036E0C0EDBCF13
:102AE00010F00D0EDBCF11F00A0EDB5010240E6E2D
:102AF0000B0EDB5011200F6E140EDBCF2AF0150EDB
:102B0000DBCF2BF00EC02FF00FC030F097EC22F08F
:102B100002502824006E03502920016E00C0DEFF01
:102B200001C0DDFFDECF00F0DDCF01F0000E00269A
:102B3000800E012201C000F0016A00508C6EDECFD1
:102B400000F0DDCF01F0000E0026800E0122060EFF
:102B5000D89001320032E804FBE1000E005E020E64
:102B6000015A00C0DEFF01C0DDFF080EDBCF2AF0F6
:102B7000090EDBCF2BF0060E2AC0DBFF070E2BC0A1
:102B8000DBFF0A0EDBCF2AF00B0EDBCF2BF0080E9B
:102B90002AC0DBFF090E2BC0DBFF0C0EDBCF2AF0B7
:102BA0000D0EDBCF2BF00A0E2AC0DBFF0B0E2BC065
:102BB000DBFF0E0EDBCF2AF00F0EDBCF2BF00C0E5F
:102BC0002AC0DBFF0D0E2BC0DBFF0A0EE66E5BECAE
:102BD0002BF0E5520E0EF3CFDBFF0F0EF4CFDBFF31
:102BE000D9500E0FE96EDACFEAFFEE52020EED5E1B
:102BF00080BA05D011EC2BF0FF0EFDEF1AF032D7A2
:102C0000FDEF1AF0FE0EDB50070801E048D1080E78
:102C1000E76EFC0EDBCFF6FFFD0EDBCFF7FFE750D4
:102C2000F626000EF722030EF702F3CFF7FF030E8E
:102C3000F602F3CFF6FFF450F7268C0EF6265A0E66
:102C4000F7220800F5CF00F0016A00BE0168100EFF
:102C500000C0DBFF110E01C0DBFF080EE76EFC0EAB
:102C6000DBCFF6FFFD0EDBCFF7FFE750F626000EB9
:102C7000F722030EF702F3CFF7FF030EF602F3CFAE
:102C8000F6FFF450F7268C0EF6265A0EF722010EA8
:102C9000F626000EF7220800F5CF00F0016A00BE0C
:102CA0000168120E00C0DBFF130E01C0DBFF080E2F
:102CB000E76EFC0EDBCFF6FFFD0EDBCFF7FFE75034
:102CC000F626000EF722030EF702F3CFF7FF030EEE
:102CD000F602F3CFF6FFF450F7268C0EF6265A0EC6
:102CE000F722020EF626000EF7220800F5CF00F0BC
:102CF000016A00BE0168140E00C0DBFF150E01C0A2
:102D0000DBFF060EDBCF08F0070EDBCF09F0DE504D
:102D1000085C066EDD500958076E100EDBCF2AF0F6
:102D2000110EDBCF2BF006C02FF007C030F097EC70
:102D300022F028C004F029C005F0080EDBCF0CF00B
:102D4000090EDBCF0DF00E0EDB500C5C0A6E0F0E81
:102D5000DB500D580B6E120EDBCF2AF0130EDBCFBB
:102D60002BF00AC02FF00BC030F097EC22F004508B
:102D70002824026E05502920036E0A0EDBCF10F0C6
:102D80000B0EDBCF11F00C0EDB50105C0E6E0D0E37
:102D9000DB5011580F6E140EDBCF2AF0150EDBCF6F
:102DA0002BF00EC02FF00FC030F097EC22F0025045
:102DB0002824006E03502920016E00C0DEFF01C0F0
:102DC000DDFFDECF00F0DDCF01F0000E0026800E2B
:102DD000012201C000F0016A00508C6EDECF00F0CD
:102DE000DDCF01F0000E0026800E0122060ED890E5
:102DF00001320032E804FBE1000E005E020E015ACF
:102E000000C0DEFF01C0DDFF080EDBCF2AF0090E97
:102E1000DBCF2BF0060E2AC0DBFF070E2BC0DBFF3B
:102E20000A0EDBCF2AF00B0EDBCF2BF0080E2AC0E8
:102E3000DBFF090E2BC0DBFF0C0EDBCF2AF00D0EE3
:102E4000DBCF2BF00A0E2AC0DBFF0B0E2BC0DBFF03
:102E50000E0EDBCF2AF00F0EDBCF2BF00C0E2AC0AC
:102E6000DBFF0D0E2BC0DBFF0A0EE66E5BEC2BF0DA
:102E7000E5520E0EF3CFDBFF0F0EF4CFDBFFD95080
:102E80000E0FE96EDACFEAFFEE52020EED5E80BA67
:102E900004D011EC2BF0FF0EB0D333D7AED3FE0E1F
:102EA000DB50080801E082D1FC0EDBCFF6FFFD0EFF
:102EB000DBCFF7FF020ED890F636F736E806FBE1D7
:102EC000BC0EF6265A0EF7220800F5CF00F0016A74
:102ED00000BE0168100E00C0DBFF110E01C0DBFF59
:102EE000FC0EDBCFF6FFFD0EDBCFF7FF020ED89016
:102EF000F636F736E806FBE1BC0EF6265A0EF72248
:102F0000010EF626000EF7220800F5CF00F0016A48
:102F100000BE0168120E00C0DBFF130E01C0DBFF14
:102F2000FC0EDBCFF6FFFD0EDBCFF7FF020ED890D5
:102F3000F636F736E806FBE1BC0EF6265A0EF72207
:102F4000020EF626000EF7220800F5CF00F0016A07
:102F500000BE0168140E00C0DBFF150E01C0DBFFD0
:102F6000FC0EDBCFF6FFFD0EDBCFF7FF020ED89095
:102F7000F636F736E806FBE1BC0EF6265A0EF722C7
:102F8000030EF626000EF7220800F5CF00F0016AC6
:102F900000BE0168160E00C0DBFF170E01C0DBFF8C
:102FA000020EDBCF0AF0030EDBCF0BF0DE500A245B
:102FB000086EDD500B20096E100EDBCF2AF0110ECB
:102FC000DBCF2BF008C02FF009C030F097EC22F0D7
:102FD00028C006F029C007F00E0EDBCF0EF00F0E52
:102FE000DBCF0FF0040EDB500E240C6E050EDB5011
:102FF0000F200D6E120EDBCF2AF0130EDBCF2BF05D
:103000000CC02FF00DC030F097EC22F006502824B1
:10301000046E07502920056E0C0EDBCF12F00D0E4A
:10302000DBCF13F0060EDB501224106E070EDB50C0
:103030001320116E140EDBCF2AF0150EDBCF2BF010
:1030400010C02FF011C030F097EC22F0045028246B
:10305000026E05502920036E0A0EDBCF16F00B0E10
:10306000DBCF17F0080EDB501624146E090EDB5070
:103070001720156E160EDBCF2AF0170EDBCF2BF0C4
:1030800014C02FF015C030F097EC22F00250282425
:10309000006E03502920016E00C0DEFF01C0DDFF7D
:1030A000DECF00F0DDCF01F0000E0026800E012201
:1030B00001C000F0016A00508C6EDECF00F0DDCF61
:1030C00001F0000E0026800E0122060ED89001327B
:1030D0000032E804FBE1000E005E020E015A00C05F
:1030E000DEFF01C0DDFF040EDBCF2AF0050EDBCFD3
:1030F0002BF0020E2AC0DBFF030E2BC0DBFF060EF7
:10310000DBCF2AF0070EDBCF2BF0040E2AC0DBFF4B
:10311000050E2BC0DBFF080EDBCF2AF0090EDBCF3C
:103120002BF0060E2AC0DBFF070E2BC0DBFF0A0EBA
:10313000DBCF2AF00B0EDBCF2BF0080E2AC0DBFF13
:10314000090E2BC0DBFF0C0EDBCF2AF00D0EDBCF00
:103150002BF00A0E2AC0DBFF0B0E2BC0DBFF0E0E7E
:10316000DBCF2AF00F0EDBCF2BF00C0E2AC0DBFFDB
:103170000D0E2BC0DBFF0A0EE66E5BEC2BF0E5526A
:103180000E0EF3CFDBFF0F0EF4CFDBFFD9500E0F87
:10319000E96EDACFEAFFEE52020EED5E80BA04D09D
:1031A00011EC2BF0FF0E29D2FBD627D2FC0EDBCF81
:1031B0002AF0FD0EDBCF2BF02BEC21F029C008F01C
:1031C0002AC009F02BC00AF02CC00BF02E6AC00EEA
:1031D0002F6E7F0E306E440E316E08C029F009C08C
:1031E0002AF00AC02BF00BC02CF0D7EC21F029C03C
:1031F00004F02AC005F02BC006F02CC007F02E6AA0
:10320000800E2F6E540E306E440E316E04C029F0C5
:1032100005C02AF006C02BF007C02CF02AEC22F0E3
:1032200029C000F02AC001F02BC002F02CC003F02E
:103230002E6A2F6A200E306E410E316E00C029F0CA
:1032400001C02AF002C02BF003C02CF041EC21F0A9
:10325000200E29C0DBFF210E2AC0DBFF220E2BC06F
:10326000DBFF230E2CC0DBFF296A240E2A6E740EAE
:103270002B6E490E2C6E200EDBCF2EF0210EDBCFF5
:103280002FF0220EDBCF30F0230EDBCF31F0D7EC66
:1032900021F029C000F02AC001F02BC002F02CC0A0
:1032A00003F02E6A800E2F6E890E306E440E316E42
:1032B00000C029F001C02AF002C02BF003C02CF09E
:1032C00040EC21F01C0E29C0DBFF1D0E2AC0DBFFE5
:1032D0001E0E2BC0DBFF1F0E2CC0DBFF190EDB6A9E
:1032E000200EF36E190EDBCFF4FFF350F45C1DE2F9
:1032F000190EDB50F76ADC0FF66E5A0EF722080043
:10330000F550E66ED950460F006EDACF01F0190E77
:10331000DB500F010024E96E000E0120EA6EE55239
:10332000E750EF6E190EDB2ADBD7D950FC0FE96EA0
:10333000FF0EDA20EA6E6C0ED880EE54000EED54CB
:1033400001E3ACD01C0EDBCF00F01D0EDBCF01F093
:103350001E0EDBCF02F01F0EDBCF03F02E6A2F6AAA
:10336000200E306E420E316E00C029F001C02AF0EE
:1033700002C02BF003C02CF0D7EC21F0EBEC22F0D4
:10338000240E2AC0DBFF250E2BC0DBFF200EDBCF77
:1033900029F0210EDBCF2AF0220EDBCF2BF0230EFB
:1033A000DBCF2CF0EBEC22F02AC000F02BC001F0B8
:1033B00000C0E6FF01C0E6FFAB0E026E4E0E036ECC
:1033C000046A02C0E6FF03C0E6FF04C0E6FFD9506E
:1033D000360FE66E000EDA20E66E5FEC2CF0056E1E
:1033E000070EE15E0550D950360FE66E000EDA206A
:1033F000E66EBBEC2AF0E552E552190EDB6A080EC8
:10340000E66E5BEC2BF0E552F3CF02F0F4CF03F065
:10341000800E025E000E035AD950460F066EDACFB8
:1034200007F0190EDB500F010624E96E000E07208D
:10343000EA6EEF50046E056A800E045E000E055AB7
:10344000000104C0E8FF0202F3CF00F0F4CF01F066
:103450000302F3500001012605C0E8FF000102024B
:10346000F35000010126000E0026400E012201C08B
:1034700000F0016A00508C6E80BA04D011EC2BF081
:10348000FF0EBBD0190EDB2A200EF36E190EDBCF18
:10349000F4FFF350F45CB3E3B0D7AFD01C0EDBCF36
:1034A00000F01D0EDBCF01F01E0EDBCF02F01F0E71
:1034B000DBCF03F02E6AC00E2F6E5A0E306E450E13
:1034C000316E00C029F001C02AF002C02BF003C009
:1034D0002CF0D7EC21F0EBEC22F0240E2AC0DBFF1D
:1034E000250E2BC0DBFF240EDBCFE6FF250EDBCF46
:1034F000E6FF9F0E006E4E0E016E026A00C0E6FFF0
:1035000001C0E6FF02C0E6FFD950360FE66E000E9E
:10351000DA20E66E5FEC2CF0036E070EE15E0350DE
:10352000D950360FE66E000EDA20E66EBBEC2AF0BC
:10353000E552E552190EDB6A080EE66E5BEC2BF0E5
:10354000E5521A0EF3CFDBFF1B0EF4CFDBFF190E93
:10355000DB50F76ADC0FF66E5A0EF7220800F550C2
:10356000800F026E036A1A0EDBCF04F01B0EDBCF56
:1035700005F0800E045E000E055A000104C0E8FF4D
:103580000202F3CF00F0F4CF01F00302F350000188
:10359000012605C0E8FF00010202F35000010126E8
:1035A000000E0026400E0122070ED8900132003294
:1035B000E804FBE100508C6E240EDBCFE6FF91ECBB
:1035C0002EF0E552320EE66EDBEC2EF0E5520000F6
:1035D000000000000000000080BA04D011EC2BF0C5
:1035E000FF0E0BD0190EDB2A200EF36E190EDBCF67
:1035F000F4FFF350F45CA0E39DD7006E660EE15C2F
:1036000002E2E16AE552E16E0050E552E7CFD9FFF0
:023610001200A6
:0E36120045EC20F0FB0EDBCFF3FFDB06F350A0
:1036200000090AE093EC20F0FA0EFEEC20F0F3E142
:10363000011CF1E1010E01D0000E74EF20F045EC09
:1036400020F03B0EE12402E3E168E652E16E010E58
:10365000DB6A020EDB6AF90EDBCFF6FFFA0EDBCF78
:10366000F7FFFB0EDBCFF8FF0800F550DF6EDF50F1
:1036700002E198EF1FF0250EDF5C02E08BEF1FF0F8
:10368000030EDB6A040EDB6A050EDB6A060EDB6ADC
:10369000070EDB6AADEC1FF02D0EDF5C0CE02B0E8D
:1036A000DF5C09E0200EDF5C06E0230EDF5C03E058
:1036B000300EDF5C1AE1DF50300A14E0130A0FE02D
:1036C000030A0AE00B0A05E0060AE4E1030EDB80C8
:1036D000E1D7030EDB82DED7030EDB84DBD7030EDC
:1036E000DB86D8D7030EDB88D5D72A0EDF5C1BE13B
:1036F000A9EC1FF0F7EC1FF010E0030EDB802A6846
:103700002B68130EDBCF2FF0140EDBCF30F097ECCD
:1037100022F0040E28C0DBFF03D0130EE0EC1FF0F4
:10372000ADEC1FF00BD0090EDB6A4EEC20F003E08D
:10373000C2EC20F0FAD7090EE0EC1FF0030EDBB06C
:10374000DB982E0EDF5C1BE1ADEC1FF02A0EDF5C78
:103750000BE1A9EC1FF0F7EC1FF003E1130E32ECC4
:1037600020F0ADEC1FF00BD0090EDB6A4EEC20F020
:1037700003E0C2EC20F0FAD7090E32EC20F0680E1C
:10378000DF5C07E1ADEC1FF0680EDF5C1DE1030EAE
:1037900018D0740EDF5C17E07A0EDF5C14E0480E80
:1037A000DF5C06E0540EDF5C03E05A0EDF5C02E1F2
:1037B000020E07D06C0EDF5C03E06A0EDF5C04E1F2
:1037C000010E85EC20F0C9DBDF506E0A01E17FD3EA
:1037D0001E0A01E192D1200A01E18FD13F0A01E1E5
:1037E00049D11A0A01E146D10D0A01E143D1200A6B
:1037F00001E140D13A0A01E13DD1200A01E13AD18B
:10380000260A01E135D10D0A01E132D11A0A01E19E
:10381000D9D0200A4AE0300A1FE0460A0EE0250A05
:1038200001E083D3D950F90FE96EFF0EDA20EA6E7A
:10383000010EEE5E000EEE5AEE5A93EC20F0250ECD
:10384000E66E95DB03E1011C01E169D38FEC20F00A
:1038500001E26BD3DB2A69D3080EDB6A040EDB506E
:10386000010806E2040EDB0457EC20F0DB508BDB92
:10387000080EDB5009E0030EDB50010B05E172DBA3
:1038800001E04DD3080EDB6A64DBEFCFDFFF07EC0E
:1038900021F003E1011C01E142D38FEC20F001E3B0
:1038A000DB2A60DB01E141D33AD3070EDB5002088B
:1038B0000FE1D3EC20F0030E9AEC20F00E0EEECFC9
:1038C000DBFF0F0EEECFDBFF100EEECFDBFF20D0C5
:1038D000F70EDBCF03F0F80EDBCF04F0020E035E31
:1038E000000E045AF70E03C0DBFFF80E04C0DBFF26
:1038F00003C0E9FF04C0EAFF8AEC20F0026A0E0E62
:1039000000C0DBFF0F0E01C0DBFF100E02C0DBFFAB
:103910000E0EDBCFE6FF0F0EDBCFE6FF100EDBCF88
:10392000E6FFC4EC2DF0E552E552E552130E29C036
:10393000DBFF140E2AC0DBFF060EDB5005E0130E82
:10394000CEEC20F001E26ADBF2EC20F002E2130E92
:1039500037DBB5EC20F006E0040ECEEC20F002E2FE
:10396000050E2EDB030EDBB005D0FCDA01E0D7D26A
:10397000080EDB6A090EDB6A0E0EDBCFF6FF0F0EB8
:10398000DBCFF7FF100EDBCFF8FF0800F550DF6E3E
:10399000DF5014E0F8EC20F011E207EC21F003E135
:1039A000011C01E1BCD2BBDB01E3DB2A090EDB2AEF
:1039B000D9500E0FE96E000ECBDBE7D7D3DA01E169
:1039C000B4D2ADD2C6DA110EEECFDBFF120EEDCFC0
:1039D000DBFF110EDBCFE6FF120EDBCFE6FFB6EC0E
:1039E0002DF0E552E552130EF3CFDBFF140EF4CFAA
:1039F000DBFF060EDB5004E0130ED0DB01E20EDB32
:103A0000F2EC20F002E2130EDBDAAFDB05E0040E8D
:103A1000C5DB02E2050ED4DA030EDBB005D0A2DA74
:103A200001E07DD2080EDB6A090EDB6A110EDBCFE6
:103A3000E9FF120EDBCFEAFFEFCFDFFFDF5014E02C
:103A4000D7DB12E2E4DB03E1011C01E168D267DBB2
:103A500001E3DB2A090EDB2A110EDB2ADBCFE9FFAB
:103A6000120EE8E3DB2AE6D77DDA01E15ED257D217
:103A7000030EDB8E070EDB0410E195DB040E5ADB30
:103A80000A0EEECFDBFF0B0EEECFDBFF0C0EEECF00
:103A9000DBFF0D0EEECFDBFF6CD0070EDB50030813
:103AA0002CE1030EDBAE0DD0B2DA020E76DAEFCFE8
:103AB00000F0016A026A036A00AE39D00168026848
:103AC00035D0F70EDBCF01F0F80EDBCF02F0020E9F
:103AD000015E000E025AF70E01C0DBFFF80E02C0B5
:103AE000DBFF01C0E9FF02C0EAFFEFCF00F00A0EE2
:103AF00000C0DBFF0B0EDB6A38D0070EDB5002087C
:103B000009E1030EDBAE04D059DB02AE10D00ED0BB
:103B100055DB0DD0030EDBAE12D079DA020E3DDAA2
:103B2000F9DA026A036A01AE02D002680368E2DAD7
:103B30000C0E02C0DBFF0D0E03C0DBFF1AD0F70E28
:103B4000DBCF02F0F80EDBCF03F0020E025E000EB8
:103B5000035AF70E02C0DBFFF80E03C0DBFF02C002
:103B6000E9FF03C0EAFFD6DAC5DA0C0EDB6A0D0EF8
:103B7000DB6A060EDB5005E1010EF36E050EF3CF96
:103B8000DBFF150EDB6A160EDB6AD950370F006EAD
:103B9000000EDA20016E390E00C0DBFF3A0E01C0C4
:103BA000DBFF380EDB6A080EDB6A0A0EAEDADF5086
:103BB000780A12E0200A10E0280A0CE0200A0AE045
:103BC0003F0A06E00D0A02E0200A08E1020E05D0D5
:103BD000080E03D0080EDF26100E97DA030EDBBEA8
:103BE00002D0DB92DB94DB50800B24E08ADAD890A1
:103BF000030EEB50000A08E6000EEE5C000EEE58D5
:103C0000000EEE58000EEE5815E213DA2D682E68FD
:103C10002F6830687EEC2DF00A0E24C0DBFF0B0EFF
:103C200025C0DBFF0C0E26C0DBFF0D0E27C0DBFF1F
:103C30002D0E08D0030EDBA202D02B0E03D0DBA486
:103C400008D0200EF36E170EF3CFDBFF150EDB2A24
:103C500002D0170EDB6A050EDB5003E1B7D901E194
:103C600089D0CC0E006E5D0E016E000E026E070E46
:103C7000DBCF03F0046A056A066A03C02DF004C0B6
:103C80002EF005C02FF006C030F0D3D944EC2EF052
:103C900000502424F36E01502520F46E025026209B
:103CA000F86EF4CFF7FFF3CFF6FF0800090EF5CF5B
:103CB000DBFF580EDF5C0FE1610EF36E090E7BD95E
:103CC0000AE3200E006E090EDBCFE7FF0050E75E2F
:103CD000090EE7CFDBFF070EDBCF00F0016A026AB7
:103CE000036A0FDA00C02DF001C02EF002C02FF0E1
:103CF00003C030F0EECF28F0EECF29F0EECF2AF05F
:103D0000EFCF2BF044EC2EF02BC0EDFF2AC0EDFFDF
:103D100029C0EDFF28C0EFFF390EDBCFE9FFDB063E
:103D20003A0EDBCFEAFF01E2DB06090EDBCFEFFF45
:103D3000150EDB2A4BD995E1030EDBA61DD06F0EC5
:103D4000DF5C06E1C1D918E3150EDB285BDA14D07D
:103D5000780EDF5C09E0580EDF5C06E0620EDF5C87
:103D600003E0420EDF5C08E1020EF36E160EF3CFA5
:103D7000DBFF02D0150EDB6A030EDB50100B0EE0EA
:103D8000040EDBCF00F0050EDB50D880005406E2B5
:103D9000060EDB5003E1040EDB5034DA95D90AE25B
:103DA000050EDBCFE7FF150EDB50E75E050EE7CF14
:103DB000DBFF02D0050EDB6A040EDBCF00F0160E2F
:103DC00045D9D880005414E2160EDBCFE6FF150E5D
:103DD000DBCFE6FF040EDBCFE6FF050EDB50E5523E
:103DE000E75CE552D880E754E552D880E7545FD9C4
:103DF000030EDB50010B0BE1080EDB5008E0B2D8DC
:103E000001E08DD0080EDB50BED8080EDB6A170E1D
:103E1000DB5007E088D9170EF1D903E1011C01E15D
:103E20007ED0160EDB5016E07ED9300EE66E9FD89F
:103E300002E1011C74E077D9DFCFE6FF04EC2DF03E
:103E4000E552E552E552F4CF01F00001F31C02E126
:103E5000011C65E0050EDBCF00F0160EDB50D880AC
:103E6000005409E2050EDBCFE7FF160EDB50E75EDC
:103E7000050EE7CFDBFF300EE66E050ECBD94FE126
:103E8000390EDB2ADBCFE9FF3A0E01E3DB2ADBCF79
:103E9000EAFF090EEFCFDBFFDB500EE044D9090E3D
:103EA000ADD902E1011C3BE0390EDB2ADBCFE9FF93
:103EB0003A0EEDE3DB2AEBD755D831E1160EDBCF16
:103EC000E6FF080EC3D8E552E7245DD82ED0070ED2
:103ED000DB50030A1CE0010A14E0030A07E07BD967
:103EE000DBCFEEFF020EDBCFEDFF1FD0F5D8056A6A
:103EF00003AE02D0046805682CD8BCD805C0EEFF1C
:103F000014D0EAD803BE046824D8B4D80ED063D93C
:103F1000DBCFEFFF0AD07BD905E1011C03E1F36899
:103F2000F46810D0FCD801E3DB2A79D934EF1BF018
:103F3000010EDBCF00F0020EDBCF01F000C0F3FF7B
:103F400001C0F4FF3B0EE15C02E2E16AE552E16E82
:103F5000CBD029D9020E9AEF20F061D90800F55094
:103F6000DF6E1200200EE66E080E0AEF21F004EC60
:103F70002DF0E552E552E552F3CF00F0F4CF01F019
:103F80000001F31C1200006E016AD950010F4DD9D7
:103F90000050EE260150ED221200045E000E055A7C
:103FA000F70E04C0DBFFF80E05C0DBFF04C0E9FF1D
:103FB00005C0EAFF1200DBCFF4FFF350F45C1200FF
:103FC000DB50E76E040EE7CFDBFF12000A0EDBCFFB
:103FD00000F00B0EDBCF01F00C0EDBCF02F00D0E6C
:103FE000DBCF03F000500110021003101200130E7B
:103FF000EECFDBFF140EEDCFDBFF130EDBCF00F0B7
:10400000140EDBCF01F00001800E01141200F70E38
:10401000DBCF04F0F80EDBCF05F01200050EDB500D
:10402000E66ED950130F01D9E552E750EE6EED6AF6
:1040300012000A0EDBCF28F00B0EDBCF29F00C0E9E
:10404000DBCF2AF00D0EDBCF2BF01200DBCFE6FF2B
:10405000150EDBCFE6FF050EDB50E552E724E552F7
:10406000E7241200DB50CED8010EF36E060EF3CF1C
:10407000DBFF1200EE50EFCFEAFFE96E02C0EEFF69
:1040800003C0EEFF04C0EEFF1200D9CFE6FFDACF87
:10409000E6FFE1CFD9FFE2CFDAFF1200DFCFE6FF84
:1040A000E66A7FEC2EF0E552E552F3501200E76E1F
:1040B000080EE7CFDBFF1200EECF00F0EECF01F0ED
:1040C000EFCF02F0036A1200050EDBCF00F0150EF1
:1040D000DB50D88000541200010EDBCF02F0020E3C
:1040E000DBCF03F0046A1200E552E5CFDAFFE7CF39
:1040F000D9FF12000A0E00C0DBFF0B0E01C0DBFF70
:104100001200D9500A0F15EF21F0F36E070EF3CF0E
:10411000DBFF1200EECF00F0EFCF01F01200010E36
:10412000DB2A020E1200FC0EDBCFE6FFFD0EDBCF1A
:10413000E6FF1200005E000E015AF70E00C0DBFF22
:10414000F80E01C0DBFF00C0E9FF01C0EAFF12006A
:10415000DA20EA6EEF2AEECFF6FF000EEF22EECF66
:10416000F7FFEF22EECFF8FF1200040EDBCFE6FFE1
:10417000130EDB50E552E75C9ADFDB5004DF060EDE
:10418000DB501200090EDB500A0DF350DF24D00F74
:10419000E76E090EE7CFDBFFADEF1FF0DB50F36EEC
:1041A000050EDBEF1FF0F70EDBCF00F0F80EDBCFD4
:1041B00001F01200DFCFE6FFB7EF1FF028DF030E9C
:1041C000ECDE5CEF20F009EC1BF0E552E552E55225
:1041D000E55200091200BDDEEE50EFCFEAFFE96EB6
:1041E000010E1200130EDB50F36E040EDBEF1FF016
:1041F000040EDB50F36E090EDBEF1FF0DBCFE6FFA2
:10420000B7EF1FF0E76E050EE7CFDBFF12008BDF85
:10421000DAEF20F0DBCFE6FF86DFE3EF20F0D950C6
:10422000F90FE96EFF0EA8EF20F0E96E000EDA201C
:04423000EA6E120020
:0C423400239E05D0239E2BAE02D02B6CE5
:10424000238E2BC025F0246A356A346A860E266ECA
:10425000276A36EF23F0239E08D0239E2BAE05D08D
:104260002A6C2B1EE86A2B22238E2BC025F02AC035
:1042700024F0356A346A8E0E266E276A36EF23F0F4
:10428000317E236A72EC23F08AEC23F023B61AEF16
:1042900023F023A20AD023AA03D023BE1AEF23F0CF
:1042A00023A426EF23F023EF23F023AA05D023AC89
:1042B00026EF23F023EF23F023A00AD023A808D071
:1042C00023BE04D023A402D02FEF23F033EF23F03A
:1042D000346A276A31502C5C336E10E329C035F004
:1042E0002AC024F02BC025F02CC032F02EC029F0BB
:1042F0002FC02AF030C02BF0233A09D02EC035F061
:104300002FC024F030C025F031C032F0336C239E32
:1043100023BC238E32C026F023B062EF23F01A0EA6
:10432000336062EF23F0266A2C6A23A408D0296C3C
:104330002A1E2B1E2C1EE86A2A222B222C2223AC9A
:1043400008D0356C241E251E261EE86A242225224C
:104350002622286A335207E02C342B322A322932A3
:104360002832332EF9D7295035262A5024222B50B3
:1043700025222C50262228C034F0239E26AE0BD0B6
:10438000346C351E241E251E261EE86A3522242282
:1043900025222622238E26A006D0D880253224323C
:1043A00035323432322A32C026F036EF23F0236A17
:1043B00072EC23F08AEC23F023B61AEF23F023A249
:1043C00005D023BA1AEF23F021EF23F023BA2DEF03
:1043D00023F023A005D023B81AEF23F02DEF23F00C
:1043E00023B821EF23F0276A7F0E2C24266EE86A7B
:1043F00027223150265EE86A275A1A0E326E2C6A3E
:10440000346A356A246A256A2E50295E2F502A5A4A
:1044100030502B5A000E2C5A09E72E5029262F50C7
:104420002A2230502B22000E2C2201D0348AD89020
:1044300029362A362B362C36D89034363536243663
:104440002536322EE1D72B502A102910D8A4348AD1
:1044500036EF23F0236A72EC23F08AEC23F023B6C4
:104460001AEF23F023A205D023B81AEF23F021EF8F
:1044700023F023AA05D023B01AEF23F021EF23F075
:1044800023B002D023A802D02DEF23F0276A3150A9
:104490002C24266EE86A27227E0E265EE86A275ABA
:1044A000346A356A246A256A30502B02F4CF25F02D
:1044B000F3CF24F02F502B02F3503526F450242252
:1044C000000E252230502A02F3503526F4502422C3
:1044D000000E25222E502B02F3503426F4503522A4
:1044E000000E242225222F502A02F3503426F450A5
:1044F0003522000E2422252230502902F350342682
:10450000F4503522000E242225222E502A02F45087
:104510003426000E3522242225222F502902F45061
:104520003426000E35222422252236EF23F02BC01C
:1045300035F02AC034F02A502F02F4CF29F0F3CFFF
:1045400028F02B503002F4CF2BF0F3CF2AF02F02BB
:10455000F3502926F4502A22E86A2B2234503002E4
:10456000F3502926F4502A22E86A2B2230AEBDEF00
:1045700022F034502A5E35502B5A35AE000C2F50A5
:104580002A5E30502B5A000C236A72EC23F023B6BB
:10459000CEEF22F023A20AD023B403D07F0E2B6EDD
:1045A00019D0800E2B6E16D02B6A14D023B0FCD7F6
:1045B000870E2C60F1D77E0E2C64F6D7860E2C5C0D
:1045C00004E0D8902B322C2AF9D723A403D02B6CEB
:1045D0002BAEEAD71200236A72EC23F023B6F5EF74
:1045E00022F023A20ED023B405D07F0E2B6EFF0E37
:1045F0002A6E1FD0800E2B6E2A6A1BD02B6A2A6A65
:1046000018D023B0FBD78F0E2C60EDD77E0E2C6414
:10461000F5D78E0E2C5C05E0D8902B322A322C2A4E
:10462000F8D723A406D02A6C2B1EE86A2B222BAEC7
:10463000E5D712007F0E2C6EFF0E2B6E2A6E296EB0
:1046400012007F0E23BEFF0E2C6E02D07F0E2C6E4A
:10465000800E2B6E2A6A296AF3D723AE04D0800E0F
:104660002C6E2B6AF7D72C6A2B6AF4D725502410AE
:1046700035103410F8E027BEF0D725BE0CD02650F8
:104680002710EBE0D890343635362436253626060A
:10469000D8A02706F2D72750D4E12628D2E034AE9E
:1046A00011D07F0E341402E135A00CD0352AE86A0F
:1046B0002422252207E3D880253224323532262AC7
:1046C0002628BFE02650C9E035C029F024C02AF0D2
:1046D00025342B6E26302C6E2B322C9E23BE2C8E36
:1046E00020EF23F02B362C3602E32384237E06E1D1
:1046F00023802C6A2B6A2A6A296A12002C2803E07C
:10470000D8802B321200D8902B3202E12382120083
:10471000238612003036313602E3238C237E06E1F5
:104720002388316A306A2F6A2E6A1200312803E02A
:10473000D88030321200D8903032EAE1238A120059
:10474000239E0CD0239E2BAE09D0286C291E2A1E36
:104750002B1EE86A29222A222B22238E2BC025F029
:104760002AC024F029C035F028C034F09E0E266EF1
:10477000276A36EF23F0236A72EC23F023B6C5EFE5
:1047800023F023A20FD023B407D07F0E2B6EFF0E91
:104790002A6E296E286E25D0800E2B6E01D02B6AD2
:1047A000000EF6D723B0FBD7286A9F0E2C60EBD7FC
:1047B0007E0E2C64F4D79E0E2C5C07E0D8902B3232
:1047C0002A32293228322C2AF6D723A40AD0286C80
:1047D000291E2A1E2B1EE86A29222A222B222BAEF2
:1047E000DED71200FBEC23F023B6000C23B0000C44
:1047F00023A4000C010C236A72EC23F08AEC23F052
:1048000023B6120023AE08D023A004D023A802D0E0
:10481000238012002390120031502C5C0BE13050A9
:104820002B5C08E12F502A5C05E12E50295C02E147
:1048300023801200D8A002D0238E10D02C5031C07B
:104840002CF0316E2B5030C02BF0306E2A502FC020
:104850002AF02F6E29502EC029F02E6E31502C5C7C
:1048600010E0FF0F09E0239023B403D023AE23848C
:10487000120023AE23941200312AD89030322F3206
:104880002E322E50295E2F502A5A30502B5A2BBED2
:10489000EAD7D89029362A362B362C2EF8D7C8D707
:1048A000D9CFE6FFDACFE6FFE1CFD9FFE2CFDAFFDB
:1048B000220EE12402E3E168E652E16ED950130FC3
:1048C000E66E000EDA20E66EA8DAD1EC2BF0006E70
:1048D000060EE15C02E2E16AE552E16E0050E76E2D
:1048E0000E0EE7CFDBFFDB50840B0CE0210E0F0137
:1048F0000A6F0B6B0F0EDB68100EDB68110EDB68A6
:104900007F0E6ED08ADA36DA020E28C0DBFF030E85
:1049100029C0DBFF040E2AC0DBFF050E2BC0DBFF26
:1049200087DA2E6A100E2F6E490E306E460E14DA9C
:10493000F2EC23F0010A32E07BDA67DA0DDAD7EC29
:1049400021F0BFD9060EDBCF29F0070EDBCF2AF00E
:10495000080EDBCF2BF0090EDBCF2CF0BBEC23F0E5
:10496000A2EC23F0AED964DA060EDBCF08F0070E16
:10497000DBCF09F0080EDBCF0AF0090EDBCF0BF01E
:1049800044DA316E08C029F009C02AF00AC02BF0C1
:104990000BC02CF048DA40EC21F0C4D9F90EDB5002
:1049A00012E00E0EDB040BE1FA0EDBCF00F0FB0E83
:1049B000DBCF01F0FC0EDBCF02F0FD0E52D167D948
:1049C000306AF8D947D00E0EDB0419E10F0EDB6A0E
:1049D000100EDB6A800EF36E110EF3CFDBFF3F0E7D
:1049E000F36E120EF3CFDBFF0F0EDBCF00F0100ED5
:1049F000DBCF01F0110EDBCF02F0120E32D1190E17
:104A0000DB6A45D9800E306ED5D9006A016A026A28
:104A10003F0E036ED950060FE96E000EDA20EA6EE3
:104A2000EECF29F0EECF2AF0EECF2BF0EFCF2CF027
:104A300000C02EF001C02FF002C030F003C031F0F2
:104A400040EC21F02CC0EDFF2BC0EDFF2AC0EDFFA4
:104A500029C0EFFFDF50010B0AE0190EDB5002E026
:104A6000000E01D0010EE76E190EE7CFDBFF8CD9E7
:104A7000060EDBCF0CF0070EDBCF0DF0080EDBCF00
:104A80000EF0090EDBCF0FF02E6A2F6A490E306E42
:104A9000400E316E0CC029F00DC02AF00EC02BF074
:104AA0000FC02CF02AEC22F05CD9A6D995D940ECA5
:104AB00021F077D9060EDBCF14F0070EDBCF15F00F
:104AC000080EDBCF16F0090EDBCF17F0220E2E6E8C
:104AD000AA0E2F6E7D0E306E3A0E316E14C029F084
:104AE00015C02AF016C02BF017C02CF02AEC22F0CB
:104AF00029C010F02AC011F02BC012F02CC013F006
:104B0000EDD840EC21F00A0E29C0DBFF0B0E2AC0C5
:104B1000DBFF0C0E2BC0DBFF0D0E2CC0DBFFD950D2
:104B20000A0FE96E000EEAD825D928C000F029C086
:104B300001F02AC002F02BC003F02E6A2F6A800E0B
:104B4000306E390E316E28C029F04FD9F2EC23F0C7
:104B5000010A13E1D9500A0FE96E000EDA20EA6E5D
:104B6000020EEECFDBFF030EEECFDBFF040EEECF27
:104B7000DBFF050EEECFDBFF68D0E1D80A0EDBCFFE
:104B80002EF00B0EDBCF2FF00C0EDBCF30F00D0E26
:104B9000DBCF31F02AEC22F01A0E29C0DBFF1B0E0E
:104BA0002AC0DBFF1C0E2BC0DBFF1D0E2CC0DBFF61
:104BB0005B0E296E9C0E2A6E2E0E2B6E360E2C6E00
:104BC00072D8CFD8220E2E6EB20E2F6E4F0E306ED0
:104BD000B90E32D99ED83E0E2E6E870E2F6E080E5D
:104BE000306E3C0E29D9DDD8A40E2E6EAA0E2F6E83
:104BF0002A0E306EBE0E20D91E0E29C0DBFF1F0EFE
:104C00002AC0DBFF200E2BC0DBFF210E2CC0DBFFF8
:104C10000A0EDBCF00F00B0EDBCF01F00C0EDBCF6A
:104C200002F00D0EDBCF03F08AD81E0EDBCF2EF084
:104C30001F0EDBCF2FF0200EDBCF30F0210EDBCFAD
:104C400031F0F1D841EC21F06DD8190EDB5008E0BD
:104C50009BD82E6A2F6A800E306EBF0EF0D803D01C
:104C600042D8DBCF03F000C028F001C029F002C019
:104C70002AF003C02BF0220EE15C02E2E16AE55269
:104C8000E16EE552E5CFDAFFE7CFD9FF12007CD81D
:104C9000830E2E6EF90E2F6EA20E306E3E0ECFD802
:104CA0002E6A2F6A12001A0EDBCF2EF01B0EDBCFFE
:104CB0002FF01C0EDBCF30F01D0EDBCF31F02AEFD2
:104CC00022F0060E29C0DBFF070E2AC0DBFF080E0C
:104CD0002BC0DBFF090E2CC0DBFF12008DD800C0FB
:104CE00029F0F5EF26F0020EDBCF00F0030EDBCF4C
:104CF00001F0040EDBCF02F0050E1200DA20EA6E9E
:104D0000EECFE6FFEECFE6FFEECFE6FFEFCFE6FF1A
:104D1000120029C004F02AC005F02BC006F02CC0F8
:104D200007F01200020E29C0DBFF030E2AC0DBFFD2
:104D3000040E2BC0DBFF050E2CC0DBFF12000A0E99
:104D4000DBCF29F00B0EDBCF2AF00C0EDBCF2BF0E4
:104D50000D0EDBCF2CF01200316E00C029F0F5EF04
:104D600026F029C008F02AC009F02BC00AF02CC098
:104D70000BF01200E9EC2DF0E552E552E552E55258
:104D80001200316E41EF21F0020EDBCF04F0030E72
:104D9000DBCF05F0040EDBCF06F0050EDBCF07F00E
:104DA000120029C000F02AC001F02BC002F02CC074
:104DB00003F012003F0EE5DFEBEC22F02AC0DEFF2D
:104DC0002BC0DDFF000EDFCF2AF0010EDBCF2BF072
:104DD0002DEC21F061EF26F004C029F005C02AF087
:104DE00006C02BF007C02CF0120001C02AF002C050
:104DF0002BF003C02CF0120029C02EF02AC02FF097
:104E00002BC030F02CC031F01200DB0E2E6E0F0ED6
:104E10002F6EC90E306E400E1200D950FA0FE96E97
:104E2000FF0E7EEF26F02AEC22F073DF6EEF26F005
:104E30005ADFDBCF03F01200A4DF53EF26F0316E10
:0A4E4000CBDF2AEC22F0D1EF26F0C0
:064E4A002D2D2D2D50520C
:104E50004F434553534F522D2D2D002D2D2D2D47B2
:104E6000454E455241544F522D2D2D002D2D444578
:104E70005649434520545950453F2D2D005242304C
:104E80003D4E6578745241353D4261636B002D2D76
:104E90002D5354415254204E4F573F2D2D2D00235A
:104EA000232323253864232323230023232323259B
:104EB0003664487A23232323004552524F5200522E
:104EC00041352D3E52455455524E2D2D2D2D2D0040
:104ED0005242302D3E434F4E54494E55452D2D2DB7
:104EE000002D2D2D2D2D2D253364487A2D2D2D2D82
:104EF0002D2D002D2D434152524945525F465245BA
:104F00003F2D2D002D2D2D336B487A7E366B487A40
:104F10002D2D2D2D002D2D2D326B487A7E356B4891
:104F20007A2D2D2D2D002D2D312E356B487A7E3486
:104F30002E356B487A2D002D332E356B487A7E3511
:104F40002E356B487A2D2D002D2D2D2D336B487A63
:104F50007E356B487A2D2D2D002D2D322E356B4848
:104F60007A7E342E356B487A2D002D2D2D326B48EC
:104F70007A7E346B487A2D2D2D2D002D312E356BF8
:104F8000487A7E332E356B487A2D2D002D2D2D2D10
:104F90002D307E312E356B487A2D2D2D002D2D2D67
:104FA0002D53544F5042414E443F2D2D2D002D2D59
:104FB0002D2D2D307E376B487A2D2D2D2D2D002D4A
:104FC0002D2D2D2D307E366B487A2D2D2D2D2D003B
:104FD0002D2D2D2D2D307E356B487A2D2D2D2D2DFF
:104FE000002D2D2D2D2D307E346B487A2D2D2D2D1D
:104FF0002D002D2D2D2D2D307E336B487A2D2D2D0E
:105000002D2D002D2D2D2D2D307E326B487A2D2DFE
:105010002D2D2D002D2D2D2D2D307E316B487A2DEF
:105020002D2D2D2D002D2D2D2D2D307E3530304860
:105030007A2D2D2D2D002D2D2D2D504153534241D4
:105040004E443F2D2D2D002D2D2D2D2D2D564F490C
:10505000442D2D2D2D2D002D2D2D2D2D414C4C5021
:105060004153532D2D2D2D002D2D2D4D4F44554C9D
:105070004154494F4E2D2D002D2D2D2D42414E4492
:10508000504153532D2D2D002D2D2D2D484947488E
:10509000504153532D2D2D002D2D2D2D2D4C4F577F
:1050A000504153532D2D2D2D002D50524F4345531C
:1050B000534F5220545950452D0052616E67653A46
:1050C0003130327E37363930487A0052616E67654A
:1050D0003A357E36373620487A0052616E67653A37
:1050E000367E35383120487A002531306420487AC0
:1050F0000052616E67653A31317E3232373720486F
:105100007A004672657175656E6379002020506C77
:10511000656173652063686F6F73652020002D2DB6
:105120002D2D2D5351554152452D2D2D2D2D002D19
:105130002D2D2D534157544F4F54482D2D2D2D00BB
:105140002D2D2D2D545249414E474C452D2D2D2DA1
:10515000002D2D2D53494E55534F4944414C2D2D73
:105160002D002D2D2D2D5741564520545950453F8A
:045170002D2D2D00B4
:0C517400D9CFE6FFE1CFD9FF260EE126DF
:10518000DF6A010EDB6A020EDB6A030EDB6A040EC5
:10519000DB6A050EDB6AF60ED36EDF0E9B6E956A38
:1051A0000AEC2BF040EC2BF07CEC2AF07F0E8C6E9E
:1051B0008E0E006E4E0E016E026A00C0E6FF01C048
:1051C000E6FF02C0E6FFD950060FE66E000EDA20B9
:1051D000E66E5FEC2CF0036E050EE15E03507D0E73
:1051E000006E4E0E016E026A00C0E6FF01C0E6FFCF
:1051F00002C0E6FFD950160FE66E000EDA20E66E0A
:105200005FEC2CF0036E050EE15E0350D950060FE3
:10521000E66E000EDA20E66EA6EC2AF0E552E552C4
:10522000D950160FE66E000EDA20E66EBBEC2AF0BF
:10523000E552E552D950060FE66E000EDA20E66E12
:10524000A6EC2AF0E552E55281B0FED711EC2BF026
:105250003F0E8C6E020EDB6A6C0E006E4E0E016EFF
:10526000026A00C0E6FF01C0E6FF02C0E6FFD950B7
:10527000060FE66E000EDA20E66E5FEC2CF0036E91
:10528000050EE15E0350D950060FE66E000EDA20DF
:10529000E66EA6EC2AF0E552E552010EE66E5BECF6
:1052A0002BF0E552F350010BDF6EDF5018E15B0E7F
:1052B000006E4E0E016E026A00C0E6FF01C0E6FFFE
:1052C00002C0E6FFD950160FE66E000EDA20E66E39
:1052D0005FEC2CF0036E050EE15E035019D0DF0485
:1052E00017E14A0E006E4E0E016E026A00C0E6FF24
:1052F00001C0E6FF02C0E6FFD950160FE66E000EB1
:10530000DA20E66E5FEC2CF0036E050EE15E0350D2
:10531000D950160FE66E000EDA20E66EBBEC2AF0CE
:10532000E552E55280BA05D011EC2BF0020EDB6895
:1053300002D081B0B2D711EC2BF0020EDB5001E0AD
:1053400035D7DF501FE1020EDB6A04EC00F0E76E98
:10535000020EE7CFDBFFDB0401E17AD7020EDB6A46
:105360002BEC01F0E76E020EE7CFDBFFDB5002080B
:1053700003E1550E8C6EE7D7020EDB50030801E106
:10538000EDD747D0DF0445E11F0E8C6E020EDB6ABD
:10539000D950010FE66E000EDA20E66E53EC0EF0E7
:1053A000E552E552E76E020EE7CFDBFFDB5001E08E
:1053B0004FD70F0E8C6E020EDB6A40EC2BF0D950EB
:1053C000040FE66E000EDA20E66E010EDBCFE6FF7C
:1053D0005EEC0FF0E552E552E552E76E020EE7CFC4
:1053E000DBFFDB5001E0D0D7040EDBCFE6FF050E7C
:1053F000DBCFE6FF010EDBCFE6FF66EC14F0E552F3
:10540000E552E552E76E020EE7CFDBFFDB5001E02D
:10541000D0D7260EE15C02E2E16AE552E16EE55288
:06542000E7CFD9FF1200E6
:0A5426009496949A220EC66EC78C6D
:105430009E961200D9CFE6FFE1CFD9FF8994400EA6
:10544000C96E9EA6FED79E96FE0EDB50C96E9EA626
:10545000FED79E96FD0EDB50C96E9EA6FED79E9689
:105460008984E552E7CFD9FF1200D9CFE6FFE1CF1B
:10547000D9FF800EE66E120EE66EDCDFE552E552D5
:10548000FE0EDBCFE6FF130EE66ED4DFE552E552EB
:10549000C00EE66E120EE66ECDDFE552E552E66A0C
:1054A000120EE66EC7DFE552E552E552E7CFD9FFAF
:1054B0001200D9CFE6FFE1CFD9FFE66A120EE66E01
:1054C000B9DFE552E552FE0EDBCFE6FF130EE66EC6
:1054D000B1DFE552E552400EE66E120EE66EAADF2F
:1054E000E552E552E66A120EE66EA4DFE552E55299
:1054F000E552E7CFD9FF120092948984E66ADBEC8B
:105500002EF0E552979C8E9CE66ADBEC2EF0E5527D
:105510008E8C89DFE66AE66A8DDFE552E552E66A3F
:10552000010EE66E87DFE552E5523C0EE66EC1DF06
:10553000E5520C0EE66EBDDFE552010EE66EB9DFF8
:10554000E552060EE66EB5DFE5521200D9CFE6FF52
:10555000E1CFD9FF800EE66EACDFE552FD0EDBCF6A
:10556000E6FFFE0EDBCFE6FF1BD8E552E552E55223
:10557000E7CFD9FF1200D9CFE6FFE1CFD9FFC00EA8
:10558000E66E97DFE552FD0EDBCFE6FFFE0EDBCFCA
:10559000E6FF06D8E552E552E552E7CFD9FF120003
:1055A000D9CFE6FFE1CFD9FF020EE126DE6ADD6A40
:1055B000FD0EDBCF00F0FE0EDBCF01F0DE5000244D
:1055C000E96EDD500120EA6EEF501AE0FD0EDBCFF0
:1055D00000F0FE0EDBCF01F0DE500024E96EDD505E
:1055E0000120EA6EEF50E66E40DFE552DF2A010E41
:1055F00001E3DB2A050EE66E68EC2EF0E552D8D703
:10560000020EE15C02E2E16AE552E16EE552E7CFAB
:04561000D9FF1200AC
:0C561400F19E9380C088100EC16E928A37
:105620001200D9CFE6FFE1CFD9FF020EE126DF6AF3
:10563000010EDB6A8150010B0AE08050200B07E06D
:10564000640EE66EDBEC2EF0E552DF2A01D0DF6A55
:10565000DFCF00F0050EE76E0018E8AE02D0E734A9
:1056600002D0E750005C04E3020EE15C04E201D0EA
:10567000E1D7E16AE552E16EE552E7CFD9FF1200CA
:10568000C088C190C098C26AB90EC16EC280C18C78
:10569000C282C2B2FED7C19C1200C088C196C09817
:1056A0000C0EC26EB90EC16EC280C18CC282C2B273
:1056B000FED7C19C1200D9CFE6FFE1CFD9FFC2824D
:1056C000C2B2FED7FE0EDB5002081FE3C450026ECA
:1056D000036A0240E840026AC00B036EFE0EDBCF95
:1056E000E6FF100EE552D880E75402C000F003C078
:1056F00001F005E0D89001320032E804FBE100C07F
:10570000F3FF01C0F4FF28D027D0C450046E04C0BA
:1057100005F0046AC35000010410026E05C003F0D6
:10572000060ED89002360336E804FBE1FE0EDBCF0E
:10573000E6FF100EE552D880E75402C000F003C027
:1057400001F005E0D89001320032E804FBE100C02E
:10575000F3FF01C0F4FF00D0E552E7CFD9FF1200FC
:10576000D9CFE6FFE1CFD9FFFB0EDBCFE9FFDB2A84
:10577000FC0EDBCFEAFF01E3DB2AEF50E66EFD0E05
:10578000DBCFE9FFDB2AFE0EDBCFEAFF01E3DB2AFA
:10579000E552E750EF6E01E0E7D7E552E7CFD9FFDA
:0257A0001200F5
:0E57A200D9CFE6FFDACFE6FFE1CFD9FFE2CFA5
:1057B000DAFFE652006801687F0E026E036AD95074
:1057C000FA0FE96EFF0EDA20EA6EEE500016EE5088
:1057D0000116EE500216EE5003166AD800C0EEFF16
:1057E00001C0EEFF02C0EEFF03C0EEFFFD0EDB5076
:1057F000800B02E0010E01D0000EE66E59D8060EB5
:10580000E926000EEA22E552E750EF6EFC0EDBCFF0
:1058100000F0FD0EDBCF01F0D89000360136FC0E13
:1058200000C0DBFFFD0E01C0DBFFDB50E66E40D8A1
:10583000040EE926000EEA22E552E750EE6EED6A0C
:10584000FD0EDB50006E016AFF0E001818E10150DA
:1058500016E12ED8EECF00F0EECF01F0EECF02F041
:10586000EFCF03F0005001100210031006E0210EEC
:105870000F010A6F0B6B800E0BD0040E09D0FD0ECA
:10588000DB5008E115D8EE6AEE6AEE6AEE6A010EA8
:10589000DF6E06D0020EDF6E0BD8EE52EE52EE8EA9
:1058A000DF50E552E552E5CFDAFFE7CFD9FF12002E
:0E58B000F80EDBCFE9FFF90EDBCFEAFF1200A6
:0258BE00D9CF40
:1058C000E6FFDACFE6FFE1CFD9FFE2CFDAFFE6521B
:1058D000E652E652E652D950F90F006EFF0EDA207A
:1058E000016E020E00C0DBFF030E01C0DBFF020EE3
:1058F000DBCFE6FF030EDBCFE6FFF90EDBCFE6FFE3
:10590000FA0EDBCFE6FFFB0EDBCFE6FFD950FC0F34
:10591000E66EFF0EDA20E66E1FEC1BF0006E070E3F
:10592000E15C02E2E16AE552E16E0050F3CFDEFF96
:10593000F4CFDDFFFC0EDBCFE9FFFD0EDBCFEAFF8E
:10594000EF6ADECF00F0DDCF01F000C0F3FF01C051
:10595000F4FF040EE15C02E2E16AE552E16EE55219
:0A596000E5CFDAFFE7CFD9FF120010
:06596A00060EF66E000EB1
:10597000F76E000EF86E0F010900F550056F090073
:10598000F550066F03E1056701D03DD00900F550E1
:10599000006F0900F550016F0900F550026F090012
:1059A0000900F550E96E0900F550EA6E090009009A
:1059B0000900F550036F0900F550046F0900090054
:1059C000F6CF07FFF7CF08FFF8CF09FF00CFF6FFAC
:1059D00001CFF7FF02CFF8FF0F01035302E1045399
:1059E00007E00900F550EE6E0307F8E20407F9D767
:1059F00007CFF6FF08CFF7FF09CFF8FF0F01050724
:085A0000000E065BBFD7120087
:085A0800D9CFE6FFDACFE6FF7B
:105A1000E1CFD9FFE2CFDAFFFB0EDBCF00F0FC0EC7
:105A2000DBCF01F00001800E01141AE1FB0EDBCF89
:105A3000E9FFFC0EDBCFEAFFEECFF3FFEDCFF4FF83
:105A4000EE2A000EEF22F3CFE9FFF4CFEAFFFD0EBE
:105A5000DBCFEFFFEF50016AF36E01C0F4FF10D00F
:105A6000FB0EDB50FE0806E1FD0EDBCFE6FFBFECD0
:105A70002EF005D0FD0EDBCFE6FFEFEC2EF0E55269
:0C5A8000E552E5CFDAFFE7CFD9FF1200B6
:045A8C000801010804
:105A90000202050B07000C0CFC0A11F70811FAFBB7
